{
  "contractName": "Regulator",
  "abi": [
    {
      "constant": true,
      "inputs": [
        {
          "name": "",
          "type": "address"
        }
      ],
      "name": "vehicles",
      "outputs": [
        {
          "name": "",
          "type": "uint256"
        }
      ],
      "payable": false,
      "stateMutability": "view",
      "type": "function"
    },
    {
      "constant": false,
      "inputs": [
        {
          "name": "_newOwner",
          "type": "address"
        }
      ],
      "name": "setOwner",
      "outputs": [
        {
          "name": "success",
          "type": "bool"
        }
      ],
      "payable": false,
      "stateMutability": "nonpayable",
      "type": "function"
    },
    {
      "constant": true,
      "inputs": [
        {
          "name": "",
          "type": "address"
        }
      ],
      "name": "operators",
      "outputs": [
        {
          "name": "",
          "type": "bool"
        }
      ],
      "payable": false,
      "stateMutability": "view",
      "type": "function"
    },
    {
      "constant": true,
      "inputs": [],
      "name": "getOwner",
      "outputs": [
        {
          "name": "",
          "type": "address"
        }
      ],
      "payable": false,
      "stateMutability": "view",
      "type": "function"
    },
    {
      "inputs": [],
      "payable": false,
      "stateMutability": "nonpayable",
      "type": "constructor"
    },
    {
      "anonymous": false,
      "inputs": [
        {
          "indexed": true,
          "name": "sender",
          "type": "address"
        },
        {
          "indexed": true,
          "name": "vehicle",
          "type": "address"
        },
        {
          "indexed": true,
          "name": "vehicleType",
          "type": "uint256"
        }
      ],
      "name": "LogVehicleTypeSet",
      "type": "event"
    },
    {
      "anonymous": false,
      "inputs": [
        {
          "indexed": true,
          "name": "sender",
          "type": "address"
        },
        {
          "indexed": true,
          "name": "operator",
          "type": "address"
        }
      ],
      "name": "LogTollBoothOperatorRemoved",
      "type": "event"
    },
    {
      "anonymous": false,
      "inputs": [
        {
          "indexed": true,
          "name": "sender",
          "type": "address"
        },
        {
          "indexed": true,
          "name": "newOperator",
          "type": "address"
        },
        {
          "indexed": true,
          "name": "owner",
          "type": "address"
        },
        {
          "indexed": false,
          "name": "depositWeis",
          "type": "uint256"
        }
      ],
      "name": "LogTollBoothOperatorCreated",
      "type": "event"
    },
    {
      "anonymous": false,
      "inputs": [
        {
          "indexed": true,
          "name": "previousOwner",
          "type": "address"
        },
        {
          "indexed": true,
          "name": "newOwner",
          "type": "address"
        }
      ],
      "name": "LogOwnerSet",
      "type": "event"
    },
    {
      "constant": false,
      "inputs": [
        {
          "name": "_vehicle",
          "type": "address"
        },
        {
          "name": "_vehicleType",
          "type": "uint256"
        }
      ],
      "name": "setVehicleType",
      "outputs": [
        {
          "name": "success",
          "type": "bool"
        }
      ],
      "payable": false,
      "stateMutability": "nonpayable",
      "type": "function"
    },
    {
      "constant": true,
      "inputs": [
        {
          "name": "_vehicle",
          "type": "address"
        }
      ],
      "name": "getVehicleType",
      "outputs": [
        {
          "name": "_vehicleType",
          "type": "uint256"
        }
      ],
      "payable": false,
      "stateMutability": "view",
      "type": "function"
    },
    {
      "constant": false,
      "inputs": [
        {
          "name": "_owner",
          "type": "address"
        },
        {
          "name": "_deposit",
          "type": "uint256"
        }
      ],
      "name": "createNewOperator",
      "outputs": [
        {
          "name": "",
          "type": "address"
        }
      ],
      "payable": false,
      "stateMutability": "nonpayable",
      "type": "function"
    },
    {
      "constant": false,
      "inputs": [
        {
          "name": "_operator",
          "type": "address"
        }
      ],
      "name": "removeOperator",
      "outputs": [
        {
          "name": "success",
          "type": "bool"
        }
      ],
      "payable": false,
      "stateMutability": "nonpayable",
      "type": "function"
    },
    {
      "constant": true,
      "inputs": [
        {
          "name": "_operator",
          "type": "address"
        }
      ],
      "name": "isOperator",
      "outputs": [
        {
          "name": "indeed",
          "type": "bool"
        }
      ],
      "payable": false,
      "stateMutability": "view",
      "type": "function"
    }
  ],
  "bytecode": "0x608060405234801561001057600080fd5b50336000806101000a81548173ffffffffffffffffffffffffffffffffffffffff021916908373ffffffffffffffffffffffffffffffffffffffff160217905550614dc0806100606000396000f300608060405260043610610099576000357c0100000000000000000000000000000000000000000000000000000000900463ffffffff168063028e77681461009e5780630d2ce522146100f557806313af40351461014c57806313e7c9d8146101a7578063374bd9ed146102025780636d70f7ae14610267578063893d20e8146102c2578063ac8a584a14610319578063af91102314610374575b600080fd5b3480156100aa57600080fd5b506100df600480360381019080803573ffffffffffffffffffffffffffffffffffffffff169060200190929190505050610401565b6040518082815260200191505060405180910390f35b34801561010157600080fd5b50610136600480360381019080803573ffffffffffffffffffffffffffffffffffffffff169060200190929190505050610419565b6040518082815260200191505060405180910390f35b34801561015857600080fd5b5061018d600480360381019080803573ffffffffffffffffffffffffffffffffffffffff169060200190929190505050610462565b604051808215151515815260200191505060405180910390f35b3480156101b357600080fd5b506101e8600480360381019080803573ffffffffffffffffffffffffffffffffffffffff169060200190929190505050610745565b604051808215151515815260200191505060405180910390f35b34801561020e57600080fd5b5061024d600480360381019080803573ffffffffffffffffffffffffffffffffffffffff16906020019092919080359060200190929190505050610765565b604051808215151515815260200191505060405180910390f35b34801561027357600080fd5b506102a8600480360381019080803573ffffffffffffffffffffffffffffffffffffffff169060200190929190505050610a65565b604051808215151515815260200191505060405180910390f35b3480156102ce57600080fd5b506102d7610abb565b604051808273ffffffffffffffffffffffffffffffffffffffff1673ffffffffffffffffffffffffffffffffffffffff16815260200191505060405180910390f35b34801561032557600080fd5b5061035a600480360381019080803573ffffffffffffffffffffffffffffffffffffffff169060200190929190505050610ae4565b604051808215151515815260200191505060405180910390f35b34801561038057600080fd5b506103bf600480360381019080803573ffffffffffffffffffffffffffffffffffffffff16906020019092919080359060200190929190505050610c8b565b604051808273ffffffffffffffffffffffffffffffffffffffff1673ffffffffffffffffffffffffffffffffffffffff16815260200191505060405180910390f35b60016020528060005260406000206000915090505481565b6000600160008373ffffffffffffffffffffffffffffffffffffffff1673ffffffffffffffffffffffffffffffffffffffff168152602001908152602001600020549050919050565b60008060009054906101000a900473ffffffffffffffffffffffffffffffffffffffff1673ffffffffffffffffffffffffffffffffffffffff163373ffffffffffffffffffffffffffffffffffffffff1614151561054e576040517f08c379a00000000000000000000000000000000000000000000000000000000081526004018080602001828103825260228152602001807f53656e6465722063616e6e6f74206265207468652073616d65206173206f776e81526020017f657200000000000000000000000000000000000000000000000000000000000081525060400191505060405180910390fd5b60008273ffffffffffffffffffffffffffffffffffffffff16141515156105dd576040517f08c379a000000000000000000000000000000000000000000000000000000000815260040180806020018281038252601d8152602001807f4e6577206f776e65722063616e6e6f742062652030206164647265737300000081525060200191505060405180910390fd5b3373ffffffffffffffffffffffffffffffffffffffff168273ffffffffffffffffffffffffffffffffffffffff1614151515610681576040517f08c379a000000000000000000000000000000000000000000000000000000000815260040180806020018281038252601b8152602001807f4e6577206f776e6572206d75737420626520646966666572656e74000000000081525060200191505060405180910390fd5b816000806101000a81548173ffffffffffffffffffffffffffffffffffffffff021916908373ffffffffffffffffffffffffffffffffffffffff1602179055506000809054906101000a900473ffffffffffffffffffffffffffffffffffffffff1673ffffffffffffffffffffffffffffffffffffffff163373ffffffffffffffffffffffffffffffffffffffff167fa1d2149652d81eb35c360c115fc7ac594124cb1ea8a5a33e9a7f5768c62869fb60405160405180910390a360019050919050565b60026020528060005260406000206000915054906101000a900460ff1681565b60008060009054906101000a900473ffffffffffffffffffffffffffffffffffffffff1673ffffffffffffffffffffffffffffffffffffffff163373ffffffffffffffffffffffffffffffffffffffff16141515610851576040517f08c379a00000000000000000000000000000000000000000000000000000000081526004018080602001828103825260228152602001807f53656e6465722063616e6e6f74206265207468652073616d65206173206f776e81526020017f657200000000000000000000000000000000000000000000000000000000000081525060400191505060405180910390fd5b60008373ffffffffffffffffffffffffffffffffffffffff161115156108df576040517f08c379a000000000000000000000000000000000000000000000000000000000815260040180806020018281038252601b8152602001807f56656869636c6520616464726573732063616e6e6f742062652030000000000081525060200191505060405180910390fd5b81600160008573ffffffffffffffffffffffffffffffffffffffff1673ffffffffffffffffffffffffffffffffffffffff16815260200190815260200160002054141515156109bc576040517f08c379a00000000000000000000000000000000000000000000000000000000081526004018080602001828103825260278152602001807f43686f6f73656e2076656869636c6520747970652063616e6e6f74206265207481526020017f68652073616d650000000000000000000000000000000000000000000000000081525060400191505060405180910390fd5b81600160008573ffffffffffffffffffffffffffffffffffffffff1673ffffffffffffffffffffffffffffffffffffffff16815260200190815260200160002081905550818373ffffffffffffffffffffffffffffffffffffffff163373ffffffffffffffffffffffffffffffffffffffff167f9f2ee98048ade87cdf829a5e6f1089e5cc01f2afc787ff7e396df2d70e5216ce60405160405180910390a46001905092915050565b6000600260008373ffffffffffffffffffffffffffffffffffffffff1673ffffffffffffffffffffffffffffffffffffffff16815260200190815260200160002060009054906101000a900460ff169050919050565b60008060009054906101000a900473ffffffffffffffffffffffffffffffffffffffff16905090565b60008060009054906101000a900473ffffffffffffffffffffffffffffffffffffffff1673ffffffffffffffffffffffffffffffffffffffff163373ffffffffffffffffffffffffffffffffffffffff16141515610bd0576040517f08c379a00000000000000000000000000000000000000000000000000000000081526004018080602001828103825260228152602001807f53656e6465722063616e6e6f74206265207468652073616d65206173206f776e81526020017f657200000000000000000000000000000000000000000000000000000000000081525060400191505060405180910390fd5b6000600260008473ffffffffffffffffffffffffffffffffffffffff1673ffffffffffffffffffffffffffffffffffffffff16815260200190815260200160002060006101000a81548160ff0219169083151502179055508173ffffffffffffffffffffffffffffffffffffffff163373ffffffffffffffffffffffffffffffffffffffff167f7253d8f039804cf6934064766e2c63c6939d22caf79d2a54df904eb8b0ffa29560405160405180910390a360019050919050565b6000806000809054906101000a900473ffffffffffffffffffffffffffffffffffffffff1673ffffffffffffffffffffffffffffffffffffffff163373ffffffffffffffffffffffffffffffffffffffff16141515610d78576040517f08c379a00000000000000000000000000000000000000000000000000000000081526004018080602001828103825260228152602001807f53656e6465722063616e6e6f74206265207468652073616d65206173206f776e81526020017f657200000000000000000000000000000000000000000000000000000000000081525060400191505060405180910390fd5b8373ffffffffffffffffffffffffffffffffffffffff163373ffffffffffffffffffffffffffffffffffffffff1614151515610e42576040517f08c379a000000000000000000000000000000000000000000000000000000000815260040180806020018281038252602b8152602001807f4e6577206f70657261746f722063616e6e6f7420626520616e206f776e65722081526020017f6f6620636f6e747261637400000000000000000000000000000000000000000081525060400191505060405180910390fd5b60018330610e4e61106a565b80841515151581526020018381526020018273ffffffffffffffffffffffffffffffffffffffff1673ffffffffffffffffffffffffffffffffffffffff1681526020019350505050604051809103906000f080158015610eb2573d6000803e3d6000fd5b5090508073ffffffffffffffffffffffffffffffffffffffff166313af4035856040518263ffffffff167c0100000000000000000000000000000000000000000000000000000000028152600401808273ffffffffffffffffffffffffffffffffffffffff1673ffffffffffffffffffffffffffffffffffffffff168152602001915050602060405180830381600087803b158015610f5057600080fd5b505af1158015610f64573d6000803e3d6000fd5b505050506040513d6020811015610f7a57600080fd5b8101908080519060200190929190505050508373ffffffffffffffffffffffffffffffffffffffff168173ffffffffffffffffffffffffffffffffffffffff163373ffffffffffffffffffffffffffffffffffffffff167fae2fe91936c66c7f87615f93bd9630929b5778679dc04d2a466fed57108463a8866040518082815260200191505060405180910390a46001600260008373ffffffffffffffffffffffffffffffffffffffff1673ffffffffffffffffffffffffffffffffffffffff16815260200190815260200160002060006101000a81548160ff0219169083151502179055508091505092915050565b604051613d1a8061107b833901905600608060405234801561001057600080fd5b5060405160608062003d1a833981018060405281019080805190602001909291908051906020019092919080519060200190929190505050808284336000806101000a81548173ffffffffffffffffffffffffffffffffffffffff021916908373ffffffffffffffffffffffffffffffffffffffff16021790555080600060146101000a81548160ff0219169083151502179055505060008111151561011e576040517f08c379a00000000000000000000000000000000000000000000000000000000081526004018080602001828103825260208152602001807f54686520696e697469616c206465706f7369742063616e6e6f7420626520302e81525060200191505060405180910390fd5b806001819055505060008173ffffffffffffffffffffffffffffffffffffffff16141515156101b5576040517f08c379a00000000000000000000000000000000000000000000000000000000081526004018080602001828103825260188152602001807f4e657720616464726573732063616e6e6f7420626520302e000000000000000081525060200191505060405180910390fd5b80600560006101000a81548173ffffffffffffffffffffffffffffffffffffffff021916908373ffffffffffffffffffffffffffffffffffffffff1602179055505082600060146101000a81548160ff0219169083151502179055508160018190555080600560006101000a81548173ffffffffffffffffffffffffffffffffffffffff021916908373ffffffffffffffffffffffffffffffffffffffff160217905550505050613aae806200026c6000396000f300608060405260043610610133576000357c0100000000000000000000000000000000000000000000000000000000900463ffffffff1680630bbbcbb21461013857806313af40351461019357806316c38b3c146101ee578063226dfb42146102355780632c333eab146102ba578063333271d01461031557806339a874861461036457806350295c67146103a957806350bb553a14610420578063552c1e551461047b5780637527b1ca146104c8578063893d20e814610573578063954d4add146105ca57806399763af614610626578063adf8252d14610651578063b187bd2614610692578063c399ec88146106c1578063cb3c4cbc146106ec578063cde0a4f814610763578063dd47050f146107be578063e23d7c5b146107ed578063f5bade6614610872578063f7e317f4146108b7575b600080fd5b34801561014457600080fd5b50610179600480360381019080803573ffffffffffffffffffffffffffffffffffffffff16906020019092919050505061090e565b604051808215151515815260200191505060405180910390f35b34801561019f57600080fd5b506101d4600480360381019080803573ffffffffffffffffffffffffffffffffffffffff169060200190929190505050610b29565b604051808215151515815260200191505060405180910390f35b3480156101fa57600080fd5b5061021b600480360381019080803515159060200190929190505050610e0c565b604051808215151515815260200191505060405180910390f35b34801561024157600080fd5b506102a0600480360381019080803573ffffffffffffffffffffffffffffffffffffffff169060200190929190803573ffffffffffffffffffffffffffffffffffffffff16906020019092919080359060200190929190505050611012565b604051808215151515815260200191505060405180910390f35b3480156102c657600080fd5b506102fb600480360381019080803573ffffffffffffffffffffffffffffffffffffffff169060200190929190505050611409565b604051808215151515815260200191505060405180910390f35b34801561032157600080fd5b5061034a60048036038101908080359060200190929190803590602001909291905050506116bc565b604051808215151515815260200191505060405180910390f35b34801561037057600080fd5b506103936004803603810190808035600019169060200190929190505050611942565b6040518082815260200191505060405180910390f35b3480156103b557600080fd5b5061040a600480360381019080803573ffffffffffffffffffffffffffffffffffffffff169060200190929190803573ffffffffffffffffffffffffffffffffffffffff1690602001909291905050506121a9565b6040518082815260200191505060405180910390f35b34801561042c57600080fd5b50610461600480360381019080803573ffffffffffffffffffffffffffffffffffffffff1690602001909291905050506122ce565b604051808215151515815260200191505060405180910390f35b34801561048757600080fd5b506104aa6004803603810190808035600019169060200190929190505050612324565b60405180826000191660001916815260200191505060405180910390f35b3480156104d457600080fd5b506104f760048036038101908080356000191690602001909291905050506123b7565b604051808473ffffffffffffffffffffffffffffffffffffffff1673ffffffffffffffffffffffffffffffffffffffff1681526020018373ffffffffffffffffffffffffffffffffffffffff1673ffffffffffffffffffffffffffffffffffffffff168152602001828152602001935050505060405180910390f35b34801561057f57600080fd5b50610588612437565b604051808273ffffffffffffffffffffffffffffffffffffffff1673ffffffffffffffffffffffffffffffffffffffff16815260200191505060405180910390f35b61060c600480360381019080803573ffffffffffffffffffffffffffffffffffffffff1690602001909291908035600019169060200190929190505050612460565b604051808215151515815260200191505060405180910390f35b34801561063257600080fd5b5061063b6129c5565b6040518082815260200191505060405180910390f35b34801561065d57600080fd5b5061067c600480360381019080803590602001909291905050506129cf565b6040518082815260200191505060405180910390f35b34801561069e57600080fd5b506106a76129ec565b604051808215151515815260200191505060405180910390f35b3480156106cd57600080fd5b506106d6612a02565b6040518082815260200191505060405180910390f35b3480156106f857600080fd5b5061074d600480360381019080803573ffffffffffffffffffffffffffffffffffffffff169060200190929190803573ffffffffffffffffffffffffffffffffffffffff169060200190929190505050612a0c565b6040518082815260200191505060405180910390f35b34801561076f57600080fd5b506107a4600480360381019080803573ffffffffffffffffffffffffffffffffffffffff169060200190929190505050612b34565b604051808215151515815260200191505060405180910390f35b3480156107ca57600080fd5b506107d3612e61565b604051808215151515815260200191505060405180910390f35b3480156107f957600080fd5b50610858600480360381019080803573ffffffffffffffffffffffffffffffffffffffff169060200190929190803573ffffffffffffffffffffffffffffffffffffffff16906020019092919080359060200190929190505050612f50565b604051808215151515815260200191505060405180910390f35b34801561087e57600080fd5b5061089d60048036038101908080359060200190929190505050613192565b604051808215151515815260200191505060405180910390f35b3480156108c357600080fd5b506108cc61341a565b604051808273ffffffffffffffffffffffffffffffffffffffff1673ffffffffffffffffffffffffffffffffffffffff16815260200191505060405180910390f35b60008060009054906101000a900473ffffffffffffffffffffffffffffffffffffffff1673ffffffffffffffffffffffffffffffffffffffff163373ffffffffffffffffffffffffffffffffffffffff161415156109fa576040517f08c379a00000000000000000000000000000000000000000000000000000000081526004018080602001828103825260228152602001807f53656e6465722063616e6e6f74206265207468652073616d65206173206f776e81526020017f657200000000000000000000000000000000000000000000000000000000000081525060400191505060405180910390fd5b610a03826122ce565b1515610a77576040517f08c379a00000000000000000000000000000000000000000000000000000000081526004018080602001828103825260188152602001807f54686973206973206e6f74206120746f6c6c20626f6f7468000000000000000081525060200191505060405180910390fd5b600260008373ffffffffffffffffffffffffffffffffffffffff1673ffffffffffffffffffffffffffffffffffffffff16815260200190815260200160002060006101000a81549060ff02191690558173ffffffffffffffffffffffffffffffffffffffff163373ffffffffffffffffffffffffffffffffffffffff167f5b34220b1e6888774f5c1badf295633d5d8d4ae02d5e3019e422b3debfe8967860405160405180910390a360019050919050565b60008060009054906101000a900473ffffffffffffffffffffffffffffffffffffffff1673ffffffffffffffffffffffffffffffffffffffff163373ffffffffffffffffffffffffffffffffffffffff16141515610c15576040517f08c379a00000000000000000000000000000000000000000000000000000000081526004018080602001828103825260228152602001807f53656e6465722063616e6e6f74206265207468652073616d65206173206f776e81526020017f657200000000000000000000000000000000000000000000000000000000000081525060400191505060405180910390fd5b60008273ffffffffffffffffffffffffffffffffffffffff1614151515610ca4576040517f08c379a000000000000000000000000000000000000000000000000000000000815260040180806020018281038252601d8152602001807f4e6577206f776e65722063616e6e6f742062652030206164647265737300000081525060200191505060405180910390fd5b3373ffffffffffffffffffffffffffffffffffffffff168273ffffffffffffffffffffffffffffffffffffffff1614151515610d48576040517f08c379a000000000000000000000000000000000000000000000000000000000815260040180806020018281038252601b8152602001807f4e6577206f776e6572206d75737420626520646966666572656e74000000000081525060200191505060405180910390fd5b816000806101000a81548173ffffffffffffffffffffffffffffffffffffffff021916908373ffffffffffffffffffffffffffffffffffffffff1602179055506000809054906101000a900473ffffffffffffffffffffffffffffffffffffffff1673ffffffffffffffffffffffffffffffffffffffff163373ffffffffffffffffffffffffffffffffffffffff167fa1d2149652d81eb35c360c115fc7ac594124cb1ea8a5a33e9a7f5768c62869fb60405160405180910390a360019050919050565b60008060009054906101000a900473ffffffffffffffffffffffffffffffffffffffff1673ffffffffffffffffffffffffffffffffffffffff163373ffffffffffffffffffffffffffffffffffffffff16141515610ef8576040517f08c379a00000000000000000000000000000000000000000000000000000000081526004018080602001828103825260228152602001807f53656e6465722063616e6e6f74206265207468652073616d65206173206f776e81526020017f657200000000000000000000000000000000000000000000000000000000000081525060400191505060405180910390fd5b600060149054906101000a900460ff16151582151514151515610fa9576040517f08c379a000000000000000000000000000000000000000000000000000000000815260040180806020018281038252602d8152602001807f4e6577207374617465206d75737420626520646966666572656e74207468616e81526020017f2063757272656e74206f6e652e0000000000000000000000000000000000000081525060400191505060405180910390fd5b81600060146101000a81548160ff0219169083151502179055508115153373ffffffffffffffffffffffffffffffffffffffff167fae0f86d9801b0bd39a2ce25d9fd1f202f2fd22e80150be4a99adb0275a635d6c60405160405180910390a360019050919050565b60008060008060008060008060008060149054906101000a900460ff161515156110a4576040517f08c379a00000000000000000000000000000000000000000000000000000000081526004018080602001828103825260138152602001807f4d757374206e6f74206265207061757365642e0000000000000000000000000081525060200191505060405180910390fd5b60008a11151561111c576040517f08c379a000000000000000000000000000000000000000000000000000000000815260040180806020018281038252601c8152602001807f436f756e74206d75737420626520626967676572207468616e2030210000000081525060200191505060405180910390fd5b8b8b604051602001808373ffffffffffffffffffffffffffffffffffffffff1673ffffffffffffffffffffffffffffffffffffffff166c010000000000000000000000000281526014018273ffffffffffffffffffffffffffffffffffffffff1673ffffffffffffffffffffffffffffffffffffffff166c01000000000000000000000000028152601401925050506040516020818303038152906040526040518082805190602001908083835b6020831015156111ef57805182526020820191506020810190506020830392506111ca565b6001836020036101000a0380198251168184511680821785525050505050509050019150506040518091039020975060046000896000191660001916815260200190815260200160002054965060008711156113f657600760008960001916600019168152602001908152602001600020955089866000015410151515611304576040517f08c379a000000000000000000000000000000000000000000000000000000000815260040180806020018281038252602f8152602001807f50656e64696e67207061796d656e74206d75737420626520626967676572207481526020017f68616e20676976656e20636f756e74000000000000000000000000000000000081525060400191505060405180910390fd5b600094505b898510156113f5578560010154935085600201600085815260200190815260200160002054925061133a8388613444565b809250819350505060006001028660020160008681526020019081526020016000208160001916905550856000016000815480929190600190039190505550856001016000815480929190600101919050555082600019168b73ffffffffffffffffffffffffffffffffffffffff167fcc28c1c2c2269c01d739ef1a54d12784fe3052b2f228668ba5f4bc862ebe51bc8385604051808381526020018281526020019250505060405180910390a38480600101955050611309565b5b6001985050505050505050509392505050565b60008060009054906101000a900473ffffffffffffffffffffffffffffffffffffffff1673ffffffffffffffffffffffffffffffffffffffff163373ffffffffffffffffffffffffffffffffffffffff161415156114f5576040517f08c379a00000000000000000000000000000000000000000000000000000000081526004018080602001828103825260228152602001807f53656e6465722063616e6e6f74206265207468652073616d65206173206f776e81526020017f657200000000000000000000000000000000000000000000000000000000000081525060400191505060405180910390fd5b60008273ffffffffffffffffffffffffffffffffffffffff16111515611583576040517f08c379a00000000000000000000000000000000000000000000000000000000081526004018080602001828103825260168152602001807f546f6c6c20626f6f74682063616e6e6f7420626520300000000000000000000081525060200191505060405180910390fd5b61158c826122ce565b151515611601576040517f08c379a00000000000000000000000000000000000000000000000000000000081526004018080602001828103825260208152602001807f4164647265737320697320616c7265616479206120746f6c6c20626f6f74682e81525060200191505060405180910390fd5b6001600260008473ffffffffffffffffffffffffffffffffffffffff1673ffffffffffffffffffffffffffffffffffffffff16815260200190815260200160002060006101000a81548160ff0219169083151502179055508173ffffffffffffffffffffffffffffffffffffffff163373ffffffffffffffffffffffffffffffffffffffff167fe8f587f6ae5ef5f7560b94b9369dd242c9de0588c328add1a785044abf837c6d60405160405180910390a360019050919050565b60008060009054906101000a900473ffffffffffffffffffffffffffffffffffffffff1673ffffffffffffffffffffffffffffffffffffffff163373ffffffffffffffffffffffffffffffffffffffff161415156117a8576040517f08c379a00000000000000000000000000000000000000000000000000000000081526004018080602001828103825260228152602001807f53656e6465722063616e6e6f74206265207468652073616d65206173206f776e81526020017f657200000000000000000000000000000000000000000000000000000000000081525060400191505060405180910390fd5b600083111515611820576040517f08c379a00000000000000000000000000000000000000000000000000000000081526004018080602001828103825260188152602001807f56656869636c6520747970652063616e6e6f742062652030000000000000000081525060200191505060405180910390fd5b816003600085815260200190815260200160002054141515156118d1576040517f08c379a00000000000000000000000000000000000000000000000000000000081526004018080602001828103825260328152602001807f4e6577206d756c7469706c696572206d75737420626520646966666572656e7481526020017f207468616e2063757272656e74206f6e652e000000000000000000000000000081525060400191505060405180910390fd5b816003600085815260200190815260200160002081905550823373ffffffffffffffffffffffffffffffffffffffff167f5e168e70d5925560e1407b68dc2495afbc25b36217cc6e4167b2cf3f28a46ef1846040518082815260200191505060405180910390a36001905092915050565b600080600080600080600080600060149054906101000a900460ff161515156119d3576040517f08c379a00000000000000000000000000000000000000000000000000000000081526004018080602001828103825260138152602001807f4d757374206e6f74206265207061757365642e0000000000000000000000000081525060200191505060405180910390fd5b6119dc336122ce565b1515611a50576040517f08c379a000000000000000000000000000000000000000000000000000000000815260040180806020018281038252601b8152602001807f53656e6465722068617320746f20626520746f6c6c20626f6f7468000000000081525060200191505060405180910390fd5b611a5989612324565b9650600060066000896000191660001916815260200190815260200160002060000160009054906101000a900473ffffffffffffffffffffffffffffffffffffffff1673ffffffffffffffffffffffffffffffffffffffff1614158015611adf575060006006600089600019166000191681526020019081526020016000206003015414155b1515611b53576040517f08c379a00000000000000000000000000000000000000000000000000000000081526004018080602001828103825260198152602001807f56656869636c6520747970652063616e6e6f7420626520302e0000000000000081525060200191505060405180910390fd5b60066000886000191660001916815260200190815260200160002095506000611b7a61341a565b73ffffffffffffffffffffffffffffffffffffffff1663028e77688860000160009054906101000a900473ffffffffffffffffffffffffffffffffffffffff166040518263ffffffff167c0100000000000000000000000000000000000000000000000000000000028152600401808273ffffffffffffffffffffffffffffffffffffffff1673ffffffffffffffffffffffffffffffffffffffff168152602001915050602060405180830381600087803b158015611c3857600080fd5b505af1158015611c4c573d6000803e3d6000fd5b505050506040513d6020811015611c6257600080fd5b8101908080519060200190929190505050111515611ce8576040517f08c379a00000000000000000000000000000000000000000000000000000000081526004018080602001828103825260198152602001807f56656869636c6520747970652063616e6e6f7420626520302e0000000000000081525060200191505060405180910390fd5b3373ffffffffffffffffffffffffffffffffffffffff168660020160009054906101000a900473ffffffffffffffffffffffffffffffffffffffff1673ffffffffffffffffffffffffffffffffffffffff1614151515611dd6576040517f08c379a000000000000000000000000000000000000000000000000000000000815260040180806020018281038252602a8152602001807f456e74727920626f6f74682063616e6e6f7420626520612073656e646572206f81526020017f6620636f6e74726163740000000000000000000000000000000000000000000081525060400191505060405180910390fd5b600460008760020160009054906101000a900473ffffffffffffffffffffffffffffffffffffffff1633604051602001808373ffffffffffffffffffffffffffffffffffffffff1673ffffffffffffffffffffffffffffffffffffffff166c010000000000000000000000000281526014018273ffffffffffffffffffffffffffffffffffffffff1673ffffffffffffffffffffffffffffffffffffffff166c01000000000000000000000000028152601401925050506040516020818303038152906040526040518082805190602001908083835b602083101515611ed15780518252602082019150602081019050602083039250611eac565b6001836020036101000a0380198251168184511680821785525050505050509050019150506040518091039020600019166000191681526020019081526020016000205494506000851115611f9657611f2a8786613444565b809450819550505086600019163373ffffffffffffffffffffffffffffffffffffffff167fcc28c1c2c2269c01d739ef1a54d12784fe3052b2f228668ba5f4bc862ebe51bc8587604051808381526020018281526020019250505060405180910390a36001975061219d565b600760008760020160009054906101000a900473ffffffffffffffffffffffffffffffffffffffff1633604051602001808373ffffffffffffffffffffffffffffffffffffffff1673ffffffffffffffffffffffffffffffffffffffff166c010000000000000000000000000281526014018273ffffffffffffffffffffffffffffffffffffffff1673ffffffffffffffffffffffffffffffffffffffff166c01000000000000000000000000028152601401925050506040516020818303038152906040526040518082805190602001908083835b602083101515612091578051825260208201915060208101905060208303925061206c565b6001836020036101000a03801982511681845116808217855250505050505090500191505060405180910390206000191660001916815260200190815260200160002091508160010154826000015401905086826002016000838152602001908152602001600020816000191690555081600001600081548092919060010191905055503373ffffffffffffffffffffffffffffffffffffffff168660020160009054906101000a900473ffffffffffffffffffffffffffffffffffffffff1673ffffffffffffffffffffffffffffffffffffffff1688600019167f739c4108960ded7f9e5e6790da2d3baebfb37959560441b5787b8c70676d873c60405160405180910390a4600297505b50505050505050919050565b6000600460008484604051602001808373ffffffffffffffffffffffffffffffffffffffff1673ffffffffffffffffffffffffffffffffffffffff166c010000000000000000000000000281526014018273ffffffffffffffffffffffffffffffffffffffff1673ffffffffffffffffffffffffffffffffffffffff166c01000000000000000000000000028152601401925050506040516020818303038152906040526040518082805190602001908083835b602083101515612282578051825260208201915060208101905060208303925061225d565b6001836020036101000a03801982511681845116808217855250505050505090500191505060405180910390206000191660001916815260200190815260200160002054905092915050565b6000600260008373ffffffffffffffffffffffffffffffffffffffff1673ffffffffffffffffffffffffffffffffffffffff16815260200190815260200160002060009054906101000a900460ff169050919050565b6000816040516020018082600019166000191681526020019150506040516020818303038152906040526040518082805190602001908083835b602083101515612383578051825260208201915060208101905060208303925061235e565b6001836020036101000a03801982511681845116808217855250505050505090500191505060405180910390209050919050565b60008060008060066000866000191660001916815260200190815260200160002090508060000160009054906101000a900473ffffffffffffffffffffffffffffffffffffffff168160020160009054906101000a900473ffffffffffffffffffffffffffffffffffffffff168260030154935093509350509193909250565b60008060009054906101000a900473ffffffffffffffffffffffffffffffffffffffff16905090565b60008060008060149054906101000a900460ff161515156124e9576040517f08c379a00000000000000000000000000000000000000000000000000000000081526004018080602001828103825260138152602001807f4d757374206e6f74206265207061757365642e0000000000000000000000000081525060200191505060405180910390fd5b6124f2856122ce565b1515612566576040517f08c379a000000000000000000000000000000000000000000000000000000000815260040180806020018281038252601e8152602001807f456e74727920626f6f7468206d75737420626520746f6c6c20626f6f7468000081525060200191505060405180910390fd5b600060066000866000191660001916815260200190815260200160002060000160009054906101000a900473ffffffffffffffffffffffffffffffffffffffff1673ffffffffffffffffffffffffffffffffffffffff16141515612632576040517f08c379a00000000000000000000000000000000000000000000000000000000081526004018080602001828103825260148152602001807f56656869636c652063616e6e6f7420626520302e00000000000000000000000081525060200191505060405180910390fd5b61263a61341a565b9150600360008373ffffffffffffffffffffffffffffffffffffffff1663028e7768336040518263ffffffff167c0100000000000000000000000000000000000000000000000000000000028152600401808273ffffffffffffffffffffffffffffffffffffffff1673ffffffffffffffffffffffffffffffffffffffff168152602001915050602060405180830381600087803b1580156126db57600080fd5b505af11580156126ef573d6000803e3d6000fd5b505050506040513d602081101561270557600080fd5b810190808051906020019092919050505081526020019081526020016000205490506000811115156127c5576040517f08c379a00000000000000000000000000000000000000000000000000000000081526004018080602001828103825260288152602001807f56656869636c65206d756c7469706c696572206d75737420626520626967676581526020017f72207468616e203000000000000000000000000000000000000000000000000081525060400191505060405180910390fd5b80600154023410151515612841576040517f08c379a00000000000000000000000000000000000000000000000000000000081526004018080602001828103825260208152602001807f4465706f736974206d75737420626520626967676572206f7220657175616c2181525060200191505060405180910390fd5b6080604051908101604052803373ffffffffffffffffffffffffffffffffffffffff1681526020018281526020018673ffffffffffffffffffffffffffffffffffffffff1681526020013481525060066000866000191660001916815260200190815260200160002060008201518160000160006101000a81548173ffffffffffffffffffffffffffffffffffffffff021916908373ffffffffffffffffffffffffffffffffffffffff1602179055506020820151816001015560408201518160020160006101000a81548173ffffffffffffffffffffffffffffffffffffffff021916908373ffffffffffffffffffffffffffffffffffffffff1602179055506060820151816003015590505083600019168573ffffffffffffffffffffffffffffffffffffffff163373ffffffffffffffffffffffffffffffffffffffff167f26213b556e4ae8dd63f1f81f4ea6181803d9a3efcad477cd84dcae45a264c30b346040518082815260200191505060405180910390a460019250505092915050565b6000600854905090565b600060036000838152602001908152602001600020549050919050565b60008060149054906101000a900460ff16905090565b6000600154905090565b6000600760008484604051602001808373ffffffffffffffffffffffffffffffffffffffff1673ffffffffffffffffffffffffffffffffffffffff166c010000000000000000000000000281526014018273ffffffffffffffffffffffffffffffffffffffff1673ffffffffffffffffffffffffffffffffffffffff166c01000000000000000000000000028152601401925050506040516020818303038152906040526040518082805190602001908083835b602083101515612ae55780518252602082019150602081019050602083039250612ac0565b6001836020036101000a03801982511681845116808217855250505050505090500191505060405180910390206000191660001916815260200190815260200160002060000154905092915050565b6000600560009054906101000a900473ffffffffffffffffffffffffffffffffffffffff1673ffffffffffffffffffffffffffffffffffffffff163373ffffffffffffffffffffffffffffffffffffffff16141515612c21576040517f08c379a00000000000000000000000000000000000000000000000000000000081526004018080602001828103825260268152602001807f53656e646572206d757374206265206120726567756c61746f72206f6620636f81526020017f6e7472616374000000000000000000000000000000000000000000000000000081525060400191505060405180910390fd5b60008273ffffffffffffffffffffffffffffffffffffffff16111515612caf576040517f08c379a00000000000000000000000000000000000000000000000000000000081526004018080602001828103825260188152602001807f4e657720616464726573732063616e6e6f7420626520302e000000000000000081525060200191505060405180910390fd5b600560009054906101000a900473ffffffffffffffffffffffffffffffffffffffff1673ffffffffffffffffffffffffffffffffffffffff168273ffffffffffffffffffffffffffffffffffffffff1614151515612d9b576040517f08c379a000000000000000000000000000000000000000000000000000000000815260040180806020018281038252602b8152602001807f4e657720726567756c61746f722063616e6e6f74206265207468652073616d6581526020017f20726567756c61746f722e00000000000000000000000000000000000000000081525060400191505060405180910390fd5b8173ffffffffffffffffffffffffffffffffffffffff16600560009054906101000a900473ffffffffffffffffffffffffffffffffffffffff1673ffffffffffffffffffffffffffffffffffffffff167fa32c4b1f26f0d877f643f7fb9db131f9cebf04d120fe5ada74c0bdfc808dab8360405160405180910390a381600560006101000a81548173ffffffffffffffffffffffffffffffffffffffff021916908373ffffffffffffffffffffffffffffffffffffffff16021790555060019050919050565b600080600854905060006008819055506000809054906101000a900473ffffffffffffffffffffffffffffffffffffffff1673ffffffffffffffffffffffffffffffffffffffff166108fc829081150290604051600060405180830381858888f19350505050158015612ed8573d6000803e3d6000fd5b506000809054906101000a900473ffffffffffffffffffffffffffffffffffffffff1673ffffffffffffffffffffffffffffffffffffffff167f851c9440e522074225f247c12030d8a38be67fbda82238aac95d4a4454647f9d826040518082815260200191505060405180910390a2600191505090565b60008060008060009054906101000a900473ffffffffffffffffffffffffffffffffffffffff1673ffffffffffffffffffffffffffffffffffffffff163373ffffffffffffffffffffffffffffffffffffffff1614151561303f576040517f08c379a00000000000000000000000000000000000000000000000000000000081526004018080602001828103825260228152602001807f53656e6465722063616e6e6f74206265207468652073616d65206173206f776e81526020017f657200000000000000000000000000000000000000000000000000000000000081525060400191505060405180910390fd5b61304a86868661352a565b508585604051602001808373ffffffffffffffffffffffffffffffffffffffff1673ffffffffffffffffffffffffffffffffffffffff166c010000000000000000000000000281526014018273ffffffffffffffffffffffffffffffffffffffff1673ffffffffffffffffffffffffffffffffffffffff166c01000000000000000000000000028152601401925050506040516020818303038152906040526040518082805190602001908083835b60208310151561311e57805182526020820191506020810190506020830392506130f9565b6001836020036101000a0380198251168184511680821785525050505050509050019150506040518091039020915060076000836000191660001916815260200190815260200160002060000154905060008111156131855761318386866001611012565b505b6001925050509392505050565b60008060009054906101000a900473ffffffffffffffffffffffffffffffffffffffff1673ffffffffffffffffffffffffffffffffffffffff163373ffffffffffffffffffffffffffffffffffffffff1614151561327e576040517f08c379a00000000000000000000000000000000000000000000000000000000081526004018080602001828103825260228152602001807f53656e6465722063616e6e6f74206265207468652073616d65206173206f776e81526020017f657200000000000000000000000000000000000000000000000000000000000081525060400191505060405180910390fd5b60008211151561331c576040517f08c379a00000000000000000000000000000000000000000000000000000000081526004018080602001828103825260248152602001807f4465706f73697465642077656973206d7573742062652062696767657220746881526020017f616e20300000000000000000000000000000000000000000000000000000000081525060400191505060405180910390fd5b60015482141515156133bc576040517f08c379a000000000000000000000000000000000000000000000000000000000815260040180806020018281038252602d8152602001807f4e6577206465706f736974206973206e6f20646966666572656e74207468616e81526020017f2063757272656e74206f6e652e0000000000000000000000000000000000000081525060400191505060405180910390fd5b816001819055503373ffffffffffffffffffffffffffffffffffffffff167ffa53ebd539f52eb4ef352ffacb2f8f5f8080cd8bb7ebb2f1acab3e1ce4bd65cb836040518082815260200191505060405180910390a260019050919050565b6000600560009054906101000a900473ffffffffffffffffffffffffffffffffffffffff16905090565b60008060008060006006600088600019166000191681526020019081526020016000209250826001015486029150826003015490508082111561348a5760009450613490565b81810394505b848103935083600860008282540192505081905550600083600301819055508260000160009054906101000a900473ffffffffffffffffffffffffffffffffffffffff1673ffffffffffffffffffffffffffffffffffffffff166108fc869081150290604051600060405180830381858888f19350505050158015613519573d6000803e3d6000fd5b508484945094505050509250929050565b6000806000809054906101000a900473ffffffffffffffffffffffffffffffffffffffff1673ffffffffffffffffffffffffffffffffffffffff163373ffffffffffffffffffffffffffffffffffffffff16141515613617576040517f08c379a00000000000000000000000000000000000000000000000000000000081526004018080602001828103825260228152602001807f53656e6465722063616e6e6f74206265207468652073616d65206173206f776e81526020017f657200000000000000000000000000000000000000000000000000000000000081525060400191505060405180910390fd5b8373ffffffffffffffffffffffffffffffffffffffff168573ffffffffffffffffffffffffffffffffffffffff16141515156136e1576040517f08c379a00000000000000000000000000000000000000000000000000000000081526004018080602001828103825260318152602001807f416e20656e74727920626f6f746820616e64206578697420626f6f746820636181526020017f6e6e6f74206265207468652073616d652100000000000000000000000000000081525060400191505060405180910390fd5b60008573ffffffffffffffffffffffffffffffffffffffff1611801561371d575060008473ffffffffffffffffffffffffffffffffffffffff16115b1515613791576040517f08c379a000000000000000000000000000000000000000000000000000000000815260040180806020018281038252601e8152602001807f45697468657220626f6f746873206973206120307820616464726573732e000081525060200191505060405180910390fd5b61379a856122ce565b80156137ab57506137aa846122ce565b5b1515613845576040517f08c379a00000000000000000000000000000000000000000000000000000000081526004018080602001828103825260288152602001807f456e74727920626f6f746820616e64206578697420626f6f7468206d7573742081526020017f626520746f6c6c2100000000000000000000000000000000000000000000000081525060400191505060405180910390fd5b8484604051602001808373ffffffffffffffffffffffffffffffffffffffff1673ffffffffffffffffffffffffffffffffffffffff166c010000000000000000000000000281526014018273ffffffffffffffffffffffffffffffffffffffff1673ffffffffffffffffffffffffffffffffffffffff166c01000000000000000000000000028152601401925050506040516020818303038152906040526040518082805190602001908083835b60208310151561391857805182526020820191506020810190506020830392506138f3565b6001836020036101000a038019825116818451168082178552505050505050905001915050604051809103902090508260046000836000191660001916815260200190815260200160002054141515156139da576040517f08c379a000000000000000000000000000000000000000000000000000000000815260040180806020018281038252601c8152602001807f5468657265206d7573742061206368616e676520696e2070726963650000000081525060200191505060405180910390fd5b82600460008360001916600019168152602001908152602001600020819055508373ffffffffffffffffffffffffffffffffffffffff168573ffffffffffffffffffffffffffffffffffffffff163373ffffffffffffffffffffffffffffffffffffffff167f5b631b37e5dfb698eace7497bcae58e93fac69e007127739fc79109d99c58332866040518082815260200191505060405180910390a4600191505093925050505600a165627a7a7230582054a1f5fa1e7efa2b7f24cdf6765fb67d9f09b834cd6705153fb47ac8f188f2090029a165627a7a723058206d9464c2b831225c8c434cdcc5beca0fba7f9633c34401c42951de5d1e03f2220029",
  "source": "pragma solidity ^0.4.24;\n\nimport \"./interfaces/RegulatorI.sol\";\nimport \"./Owned.sol\";\nimport \"./TollBoothOperator.sol\";\n\n\ncontract Regulator is Owned, RegulatorI {\n\n    mapping(address => uint) public vehicles;\n    mapping(address => bool) public operators;\n\n    event LogVehicleTypeSet( address indexed sender, address indexed vehicle, uint indexed vehicleType);\n    event LogTollBoothOperatorRemoved(address indexed sender, address indexed operator);\n    event LogTollBoothOperatorCreated(address indexed sender, address indexed newOperator, address indexed owner, uint depositWeis);\n\n    constructor() public {}\n\n    function setVehicleType(address _vehicle, uint _vehicleType) public fromOwner returns(bool success) {\n        require(_vehicle > 0, \"Vehicle address cannot be 0\");\n        require(vehicles[_vehicle] != _vehicleType, \"Choosen vehicle type cannot be the same\");\n        vehicles[_vehicle] = _vehicleType;\n        emit LogVehicleTypeSet(msg.sender, _vehicle, _vehicleType);\n        return true;\n    }\n\n    function getVehicleType(address _vehicle) public view returns(uint _vehicleType) {\n        return vehicles[_vehicle];\n    }\n\n    function createNewOperator(address _owner, uint _deposit) public fromOwner returns(TollBoothOperatorI) {\n        require(msg.sender != _owner, \"New operator cannot be an owner of contract\");\n        TollBoothOperator newOperator = new TollBoothOperator(true, _deposit, this);\n        newOperator.setOwner(_owner);\n        emit LogTollBoothOperatorCreated(msg.sender, newOperator, _owner, _deposit);\n        operators[newOperator] = true;\n        return newOperator;\n    }\n\n    function removeOperator(address _operator) public fromOwner returns(bool success) {\n        operators[_operator] = false;\n        emit LogTollBoothOperatorRemoved(msg.sender, _operator);\n        return true;\n    }\n\n    function isOperator(address _operator) public view returns(bool indeed) {\n        return operators[_operator];\n    }\n}",
  "sourcePath": "/Users/wojciechkalinski/workspace-oracle-exam2/exam-step-2/contracts/Regulator.sol",
  "compiler": {
    "name": "solc",
    "version": "0.4.24+commit.e67f0147.Emscripten.clang"
  },
  "schemaVersion": "2.0.1",
  "updatedAt": "2018-12-10T12:17:52.426Z"
}