{
  "contractName": "Regulated",
  "abi": [
    {
      "inputs": [
        {
          "name": "_regulator",
          "type": "address"
        }
      ],
      "payable": false,
      "stateMutability": "nonpayable",
      "type": "constructor"
    },
    {
      "anonymous": false,
      "inputs": [
        {
          "indexed": true,
          "name": "previousRegulator",
          "type": "address"
        },
        {
          "indexed": true,
          "name": "newRegulator",
          "type": "address"
        }
      ],
      "name": "LogRegulatorSet",
      "type": "event"
    },
    {
      "constant": false,
      "inputs": [
        {
          "name": "_newRegulator",
          "type": "address"
        }
      ],
      "name": "setRegulator",
      "outputs": [
        {
          "name": "",
          "type": "bool"
        }
      ],
      "payable": false,
      "stateMutability": "nonpayable",
      "type": "function"
    },
    {
      "constant": true,
      "inputs": [],
      "name": "getRegulator",
      "outputs": [
        {
          "name": "",
          "type": "address"
        }
      ],
      "payable": false,
      "stateMutability": "view",
      "type": "function"
    }
  ],
  "bytecode": "0x608060405234801561001057600080fd5b506040516020806105938339810180604052810190808051906020019092919050505060008173ffffffffffffffffffffffffffffffffffffffff16141515156100c2576040517f08c379a00000000000000000000000000000000000000000000000000000000081526004018080602001828103825260188152602001807f4e657720616464726573732063616e6e6f7420626520302e000000000000000081525060200191505060405180910390fd5b806000806101000a81548173ffffffffffffffffffffffffffffffffffffffff021916908373ffffffffffffffffffffffffffffffffffffffff16021790555050610481806101126000396000f30060806040526004361061004c576000357c0100000000000000000000000000000000000000000000000000000000900463ffffffff168063cde0a4f814610051578063f7e317f4146100ac575b600080fd5b34801561005d57600080fd5b50610092600480360381019080803573ffffffffffffffffffffffffffffffffffffffff169060200190929190505050610103565b604051808215151515815260200191505060405180910390f35b3480156100b857600080fd5b506100c161042c565b604051808273ffffffffffffffffffffffffffffffffffffffff1673ffffffffffffffffffffffffffffffffffffffff16815260200191505060405180910390f35b6000808273ffffffffffffffffffffffffffffffffffffffff1614151515610193576040517f08c379a00000000000000000000000000000000000000000000000000000000081526004018080602001828103825260188152602001807f4e657720616464726573732063616e6e6f7420626520302e000000000000000081525060200191505060405180910390fd5b6000809054906101000a900473ffffffffffffffffffffffffffffffffffffffff1673ffffffffffffffffffffffffffffffffffffffff168273ffffffffffffffffffffffffffffffffffffffff161415151561027e576040517f08c379a000000000000000000000000000000000000000000000000000000000815260040180806020018281038252602b8152602001807f4e657720726567756c61746f722063616e6e6f74206265207468652073616d6581526020017f20726567756c61746f722e00000000000000000000000000000000000000000081525060400191505060405180910390fd5b6000809054906101000a900473ffffffffffffffffffffffffffffffffffffffff1673ffffffffffffffffffffffffffffffffffffffff163373ffffffffffffffffffffffffffffffffffffffff16141515610368576040517f08c379a00000000000000000000000000000000000000000000000000000000081526004018080602001828103825260268152602001807f53656e646572206d757374206265206120726567756c61746f72206f6620636f81526020017f6e7472616374000000000000000000000000000000000000000000000000000081525060400191505060405180910390fd5b8173ffffffffffffffffffffffffffffffffffffffff166000809054906101000a900473ffffffffffffffffffffffffffffffffffffffff1673ffffffffffffffffffffffffffffffffffffffff167fa32c4b1f26f0d877f643f7fb9db131f9cebf04d120fe5ada74c0bdfc808dab8360405160405180910390a3816000806101000a81548173ffffffffffffffffffffffffffffffffffffffff021916908373ffffffffffffffffffffffffffffffffffffffff16021790555060019050919050565b60008060009054906101000a900473ffffffffffffffffffffffffffffffffffffffff169050905600a165627a7a723058203148d7a06f723d2612e72bf4b9f4bea09c5c5357954ab754ca2d8cbe9b3885bb0029",
  "source": "pragma solidity ^0.4.24;\n\nimport \"./interfaces/RegulatedI.sol\";\n\n\ncontract Regulated is RegulatedI {\n    \n    address internal regulator;\n\n    event LogRegulatorSet(address indexed previousRegulator, address indexed newRegulator);\n\n    constructor(address _regulator) public {\n        require(_regulator != 0, \"New address cannot be 0.\");\n        regulator = _regulator;\n    }\n    \n    function setRegulator(address _newRegulator) public returns(bool) {\n        require(_newRegulator != 0x0, \"New address cannot be 0.\");\n        require(_newRegulator != regulator, \"New regulator cannot be the same regulator.\");\n        require(msg.sender == regulator, \"Sender must be a regulator of contract\");\n        emit LogRegulatorSet(regulator, _newRegulator);\n        regulator = _newRegulator;\n        return true;\n    }\n\n    function getRegulator() public view returns(RegulatorI) {\n        return RegulatorI(regulator);\n    }\n}",
  "sourcePath": "/Users/wojciechkalinski/workspace-oracle-exam2/exam-step-2/contracts/Regulated.sol",
  "compiler": {
    "name": "solc",
    "version": "0.4.24+commit.e67f0147.Emscripten.clang"
  },
  "schemaVersion": "2.0.1",
  "updatedAt": "2018-12-18T13:04:59.499Z"
}