{
  "contractName": "TollBoothHolder",
  "abi": [
    {
      "constant": false,
      "inputs": [
        {
          "name": "_newOwner",
          "type": "address"
        }
      ],
      "name": "setOwner",
      "outputs": [
        {
          "name": "",
          "type": "bool"
        }
      ],
      "payable": false,
      "stateMutability": "nonpayable",
      "type": "function"
    },
    {
      "constant": true,
      "inputs": [],
      "name": "getOwner",
      "outputs": [
        {
          "name": "",
          "type": "address"
        }
      ],
      "payable": false,
      "stateMutability": "view",
      "type": "function"
    },
    {
      "inputs": [],
      "payable": false,
      "stateMutability": "nonpayable",
      "type": "constructor"
    },
    {
      "anonymous": false,
      "inputs": [
        {
          "indexed": true,
          "name": "sender",
          "type": "address"
        },
        {
          "indexed": true,
          "name": "tollBooth",
          "type": "address"
        }
      ],
      "name": "LogTollBoothAdded",
      "type": "event"
    },
    {
      "anonymous": false,
      "inputs": [
        {
          "indexed": true,
          "name": "sender",
          "type": "address"
        },
        {
          "indexed": true,
          "name": "tollBooth",
          "type": "address"
        }
      ],
      "name": "LogTollBoothRemoved",
      "type": "event"
    },
    {
      "anonymous": false,
      "inputs": [
        {
          "indexed": true,
          "name": "previousOwner",
          "type": "address"
        },
        {
          "indexed": true,
          "name": "newOwner",
          "type": "address"
        }
      ],
      "name": "LogOwnerSet",
      "type": "event"
    },
    {
      "constant": false,
      "inputs": [
        {
          "name": "_tollBooth",
          "type": "address"
        }
      ],
      "name": "addTollBooth",
      "outputs": [
        {
          "name": "success",
          "type": "bool"
        }
      ],
      "payable": false,
      "stateMutability": "nonpayable",
      "type": "function"
    },
    {
      "constant": true,
      "inputs": [
        {
          "name": "_tollBooth",
          "type": "address"
        }
      ],
      "name": "isTollBooth",
      "outputs": [
        {
          "name": "indeed",
          "type": "bool"
        }
      ],
      "payable": false,
      "stateMutability": "view",
      "type": "function"
    },
    {
      "constant": false,
      "inputs": [
        {
          "name": "_tollBooth",
          "type": "address"
        }
      ],
      "name": "removeTollBooth",
      "outputs": [
        {
          "name": "success",
          "type": "bool"
        }
      ],
      "payable": false,
      "stateMutability": "nonpayable",
      "type": "function"
    }
  ],
  "bytecode": "0x608060405234801561001057600080fd5b50336000806101000a81548173ffffffffffffffffffffffffffffffffffffffff021916908373ffffffffffffffffffffffffffffffffffffffff160217905550610b02806100606000396000f30060806040526004361061006d576000357c0100000000000000000000000000000000000000000000000000000000900463ffffffff1680630bbbcbb21461007257806313af4035146100cd5780632c333eab1461012857806350bb553a14610183578063893d20e8146101de575b600080fd5b34801561007e57600080fd5b506100b3600480360381019080803573ffffffffffffffffffffffffffffffffffffffff169060200190929190505050610235565b604051808215151515815260200191505060405180910390f35b3480156100d957600080fd5b5061010e600480360381019080803573ffffffffffffffffffffffffffffffffffffffff169060200190929190505050610476565b604051808215151515815260200191505060405180910390f35b34801561013457600080fd5b50610169600480360381019080803573ffffffffffffffffffffffffffffffffffffffff16906020019092919050505061077f565b604051808215151515815260200191505060405180910390f35b34801561018f57600080fd5b506101c4600480360381019080803573ffffffffffffffffffffffffffffffffffffffff169060200190929190505050610a57565b604051808215151515815260200191505060405180910390f35b3480156101ea57600080fd5b506101f3610aad565b604051808273ffffffffffffffffffffffffffffffffffffffff1673ffffffffffffffffffffffffffffffffffffffff16815260200191505060405180910390f35b60008060009054906101000a900473ffffffffffffffffffffffffffffffffffffffff1673ffffffffffffffffffffffffffffffffffffffff163373ffffffffffffffffffffffffffffffffffffffff16141515610321576040517f08c379a00000000000000000000000000000000000000000000000000000000081526004018080602001828103825260228152602001807f4f6e6c79206f776e65722063616e20706572666f726d2074686973206163746981526020017f6f6e00000000000000000000000000000000000000000000000000000000000081525060400191505060405180910390fd5b61032a82610a57565b15156103c4576040517f08c379a00000000000000000000000000000000000000000000000000000000081526004018080602001828103825260218152602001807f476976656e2061646472657373206973206e6f74206120746f6c6c20626f6f7481526020017f680000000000000000000000000000000000000000000000000000000000000081525060400191505060405180910390fd5b600160008373ffffffffffffffffffffffffffffffffffffffff1673ffffffffffffffffffffffffffffffffffffffff16815260200190815260200160002060006101000a81549060ff02191690558173ffffffffffffffffffffffffffffffffffffffff163373ffffffffffffffffffffffffffffffffffffffff167f5b34220b1e6888774f5c1badf295633d5d8d4ae02d5e3019e422b3debfe8967860405160405180910390a360019050919050565b60008060009054906101000a900473ffffffffffffffffffffffffffffffffffffffff1673ffffffffffffffffffffffffffffffffffffffff163373ffffffffffffffffffffffffffffffffffffffff16141515610562576040517f08c379a00000000000000000000000000000000000000000000000000000000081526004018080602001828103825260228152602001807f4f6e6c79206f776e65722063616e20706572666f726d2074686973206163746981526020017f6f6e00000000000000000000000000000000000000000000000000000000000081525060400191505060405180910390fd5b60008273ffffffffffffffffffffffffffffffffffffffff16141515156105f1576040517f08c379a000000000000000000000000000000000000000000000000000000000815260040180806020018281038252601d8152602001807f4e6577206f776e65722063616e6e6f742062652030206164647265737300000081525060200191505060405180910390fd5b3373ffffffffffffffffffffffffffffffffffffffff168273ffffffffffffffffffffffffffffffffffffffff16141515156106bb576040517f08c379a00000000000000000000000000000000000000000000000000000000081526004018080602001828103825260278152602001807f4e6577206f776e6572206d75737420626520646966666572656e74207468616e81526020017f2073656e6465720000000000000000000000000000000000000000000000000081525060400191505060405180910390fd5b816000806101000a81548173ffffffffffffffffffffffffffffffffffffffff021916908373ffffffffffffffffffffffffffffffffffffffff1602179055506000809054906101000a900473ffffffffffffffffffffffffffffffffffffffff1673ffffffffffffffffffffffffffffffffffffffff163373ffffffffffffffffffffffffffffffffffffffff167fa1d2149652d81eb35c360c115fc7ac594124cb1ea8a5a33e9a7f5768c62869fb60405160405180910390a360019050919050565b60008060009054906101000a900473ffffffffffffffffffffffffffffffffffffffff1673ffffffffffffffffffffffffffffffffffffffff163373ffffffffffffffffffffffffffffffffffffffff1614151561086b576040517f08c379a00000000000000000000000000000000000000000000000000000000081526004018080602001828103825260228152602001807f4f6e6c79206f776e65722063616e20706572666f726d2074686973206163746981526020017f6f6e00000000000000000000000000000000000000000000000000000000000081525060400191505060405180910390fd5b60008273ffffffffffffffffffffffffffffffffffffffff1611151561091f576040517f08c379a00000000000000000000000000000000000000000000000000000000081526004018080602001828103825260228152602001807f4e657720746f6c6c20626f6f746820616464726573732063616e6e6f7420626581526020017f203000000000000000000000000000000000000000000000000000000000000081525060400191505060405180910390fd5b61092882610a57565b15151561099d576040517f08c379a00000000000000000000000000000000000000000000000000000000081526004018080602001828103825260208152602001807f4164647265737320697320616c7265616479206120746f6c6c20626f6f74682e81525060200191505060405180910390fd5b60018060008473ffffffffffffffffffffffffffffffffffffffff1673ffffffffffffffffffffffffffffffffffffffff16815260200190815260200160002060006101000a81548160ff0219169083151502179055508173ffffffffffffffffffffffffffffffffffffffff163373ffffffffffffffffffffffffffffffffffffffff167fe8f587f6ae5ef5f7560b94b9369dd242c9de0588c328add1a785044abf837c6d60405160405180910390a360019050919050565b6000600160008373ffffffffffffffffffffffffffffffffffffffff1673ffffffffffffffffffffffffffffffffffffffff16815260200190815260200160002060009054906101000a900460ff169050919050565b60008060009054906101000a900473ffffffffffffffffffffffffffffffffffffffff169050905600a165627a7a72305820f34327ea456674e20a790c309e98ada30eb270bc15002c9001d032d69434a46a0029",
  "source": "pragma solidity ^0.4.24;\n\nimport \"./Owned.sol\";\nimport \"./interfaces/TollBoothHolderI.sol\";\n\n\ncontract TollBoothHolder is Owned, TollBoothHolderI {\n\n    mapping(address => bool) internal tollBoothHolders;\n\n    event LogTollBoothAdded(address indexed sender, address indexed tollBooth);\n    event LogTollBoothRemoved(address indexed sender, address indexed tollBooth);\n\n    modifier onlyIfNotZeroAddress(address _address) {\n        require(_address > 0, \"An address cannot be 0\");\n        _;\n    }\n\n    constructor() public {\n    }\n\n    function addTollBooth(address _tollBooth) public fromOwner returns (bool success) {\n        require(_tollBooth > 0x0, \"New toll booth address cannot be 0\");\n        require(!isTollBooth(_tollBooth), \"Address is already a toll booth.\");\n        tollBoothHolders[_tollBooth] = true;\n        emit LogTollBoothAdded(msg.sender, _tollBooth);\n        return true;\n    }\n\n    function isTollBooth(address _tollBooth) public view returns(bool indeed) {\n        return tollBoothHolders[_tollBooth];\n    }\n\n    function removeTollBooth(address _tollBooth) public fromOwner returns (bool success) {\n        require(isTollBooth(_tollBooth), \"Given address is not a toll booth\");            \n        delete tollBoothHolders[_tollBooth];\n        emit LogTollBoothRemoved(msg.sender, _tollBooth);\n        return true;\n    }\n}",
  "sourcePath": "/Users/wojciechkalinski/workspace-oracle-exam2/exam-step-2/contracts/TollBoothHolder.sol",
  "compiler": {
    "name": "solc",
    "version": "0.4.24+commit.e67f0147.Emscripten.clang"
  },
  "schemaVersion": "2.0.1",
  "updatedAt": "2018-12-18T09:47:36.488Z"
}