{
  "contractName": "TollBoothOperator",
  "abi": [
    {
      "constant": false,
      "inputs": [
        {
          "name": "_tollBooth",
          "type": "address"
        }
      ],
      "name": "removeTollBooth",
      "outputs": [
        {
          "name": "success",
          "type": "bool"
        }
      ],
      "payable": false,
      "stateMutability": "nonpayable",
      "type": "function"
    },
    {
      "constant": false,
      "inputs": [
        {
          "name": "_newOwner",
          "type": "address"
        }
      ],
      "name": "setOwner",
      "outputs": [
        {
          "name": "",
          "type": "bool"
        }
      ],
      "payable": false,
      "stateMutability": "nonpayable",
      "type": "function"
    },
    {
      "constant": false,
      "inputs": [
        {
          "name": "_state",
          "type": "bool"
        }
      ],
      "name": "setPaused",
      "outputs": [
        {
          "name": "",
          "type": "bool"
        }
      ],
      "payable": false,
      "stateMutability": "nonpayable",
      "type": "function"
    },
    {
      "constant": false,
      "inputs": [
        {
          "name": "_tollBooth",
          "type": "address"
        }
      ],
      "name": "addTollBooth",
      "outputs": [
        {
          "name": "success",
          "type": "bool"
        }
      ],
      "payable": false,
      "stateMutability": "nonpayable",
      "type": "function"
    },
    {
      "constant": false,
      "inputs": [
        {
          "name": "_vehicleType",
          "type": "uint256"
        },
        {
          "name": "_newMultiplier",
          "type": "uint256"
        }
      ],
      "name": "setMultiplier",
      "outputs": [
        {
          "name": "success",
          "type": "bool"
        }
      ],
      "payable": false,
      "stateMutability": "nonpayable",
      "type": "function"
    },
    {
      "constant": true,
      "inputs": [
        {
          "name": "_entryBooth",
          "type": "address"
        },
        {
          "name": "_exitBooth",
          "type": "address"
        }
      ],
      "name": "getRoutePrice",
      "outputs": [
        {
          "name": "priceWeis",
          "type": "uint256"
        }
      ],
      "payable": false,
      "stateMutability": "view",
      "type": "function"
    },
    {
      "constant": true,
      "inputs": [
        {
          "name": "_tollBooth",
          "type": "address"
        }
      ],
      "name": "isTollBooth",
      "outputs": [
        {
          "name": "indeed",
          "type": "bool"
        }
      ],
      "payable": false,
      "stateMutability": "view",
      "type": "function"
    },
    {
      "constant": true,
      "inputs": [],
      "name": "getOwner",
      "outputs": [
        {
          "name": "",
          "type": "address"
        }
      ],
      "payable": false,
      "stateMutability": "view",
      "type": "function"
    },
    {
      "constant": true,
      "inputs": [
        {
          "name": "_vehicleType",
          "type": "uint256"
        }
      ],
      "name": "getMultiplier",
      "outputs": [
        {
          "name": "multiplier",
          "type": "uint256"
        }
      ],
      "payable": false,
      "stateMutability": "view",
      "type": "function"
    },
    {
      "constant": true,
      "inputs": [],
      "name": "isPaused",
      "outputs": [
        {
          "name": "",
          "type": "bool"
        }
      ],
      "payable": false,
      "stateMutability": "view",
      "type": "function"
    },
    {
      "constant": true,
      "inputs": [],
      "name": "getDeposit",
      "outputs": [
        {
          "name": "depositedWeis",
          "type": "uint256"
        }
      ],
      "payable": false,
      "stateMutability": "view",
      "type": "function"
    },
    {
      "constant": false,
      "inputs": [
        {
          "name": "_newRegulator",
          "type": "address"
        }
      ],
      "name": "setRegulator",
      "outputs": [
        {
          "name": "",
          "type": "bool"
        }
      ],
      "payable": false,
      "stateMutability": "nonpayable",
      "type": "function"
    },
    {
      "constant": false,
      "inputs": [
        {
          "name": "_depositWeis",
          "type": "uint256"
        }
      ],
      "name": "setDeposit",
      "outputs": [
        {
          "name": "success",
          "type": "bool"
        }
      ],
      "payable": false,
      "stateMutability": "nonpayable",
      "type": "function"
    },
    {
      "constant": true,
      "inputs": [],
      "name": "getRegulator",
      "outputs": [
        {
          "name": "",
          "type": "address"
        }
      ],
      "payable": false,
      "stateMutability": "view",
      "type": "function"
    },
    {
      "inputs": [
        {
          "name": "_state",
          "type": "bool"
        },
        {
          "name": "_deposit",
          "type": "uint256"
        },
        {
          "name": "_regulator",
          "type": "address"
        }
      ],
      "payable": false,
      "stateMutability": "nonpayable",
      "type": "constructor"
    },
    {
      "payable": true,
      "stateMutability": "payable",
      "type": "fallback"
    },
    {
      "anonymous": false,
      "inputs": [
        {
          "indexed": true,
          "name": "vehicle",
          "type": "address"
        },
        {
          "indexed": true,
          "name": "entryBooth",
          "type": "address"
        },
        {
          "indexed": true,
          "name": "exitSecretHashed",
          "type": "bytes32"
        },
        {
          "indexed": false,
          "name": "depositedWeis",
          "type": "uint256"
        }
      ],
      "name": "LogRoadEntered",
      "type": "event"
    },
    {
      "anonymous": false,
      "inputs": [
        {
          "indexed": true,
          "name": "exitBooth",
          "type": "address"
        },
        {
          "indexed": true,
          "name": "exitSecretHashed",
          "type": "bytes32"
        },
        {
          "indexed": false,
          "name": "finalFee",
          "type": "uint256"
        },
        {
          "indexed": false,
          "name": "refundWeis",
          "type": "uint256"
        }
      ],
      "name": "LogRoadExited",
      "type": "event"
    },
    {
      "anonymous": false,
      "inputs": [
        {
          "indexed": true,
          "name": "exitSecretHashed",
          "type": "bytes32"
        },
        {
          "indexed": true,
          "name": "entryBooth",
          "type": "address"
        },
        {
          "indexed": true,
          "name": "exitBooth",
          "type": "address"
        }
      ],
      "name": "LogPendingPayment",
      "type": "event"
    },
    {
      "anonymous": false,
      "inputs": [
        {
          "indexed": true,
          "name": "owner",
          "type": "address"
        },
        {
          "indexed": false,
          "name": "amount",
          "type": "uint256"
        }
      ],
      "name": "LogFeesCollected",
      "type": "event"
    },
    {
      "anonymous": false,
      "inputs": [
        {
          "indexed": true,
          "name": "previousRegulator",
          "type": "address"
        },
        {
          "indexed": true,
          "name": "newRegulator",
          "type": "address"
        }
      ],
      "name": "LogRegulatorSet",
      "type": "event"
    },
    {
      "anonymous": false,
      "inputs": [
        {
          "indexed": true,
          "name": "sender",
          "type": "address"
        },
        {
          "indexed": true,
          "name": "entryBooth",
          "type": "address"
        },
        {
          "indexed": true,
          "name": "exitBooth",
          "type": "address"
        },
        {
          "indexed": false,
          "name": "priceWeis",
          "type": "uint256"
        }
      ],
      "name": "LogRoutePriceSet",
      "type": "event"
    },
    {
      "anonymous": false,
      "inputs": [
        {
          "indexed": true,
          "name": "sender",
          "type": "address"
        },
        {
          "indexed": true,
          "name": "vehicleType",
          "type": "uint256"
        },
        {
          "indexed": false,
          "name": "multiplier",
          "type": "uint256"
        }
      ],
      "name": "LogMultiplierSet",
      "type": "event"
    },
    {
      "anonymous": false,
      "inputs": [
        {
          "indexed": true,
          "name": "sender",
          "type": "address"
        },
        {
          "indexed": true,
          "name": "tollBooth",
          "type": "address"
        }
      ],
      "name": "LogTollBoothAdded",
      "type": "event"
    },
    {
      "anonymous": false,
      "inputs": [
        {
          "indexed": true,
          "name": "sender",
          "type": "address"
        },
        {
          "indexed": true,
          "name": "tollBooth",
          "type": "address"
        }
      ],
      "name": "LogTollBoothRemoved",
      "type": "event"
    },
    {
      "anonymous": false,
      "inputs": [
        {
          "indexed": true,
          "name": "sender",
          "type": "address"
        },
        {
          "indexed": false,
          "name": "amount",
          "type": "uint256"
        }
      ],
      "name": "LogDepositSet",
      "type": "event"
    },
    {
      "anonymous": false,
      "inputs": [
        {
          "indexed": true,
          "name": "_sender",
          "type": "address"
        },
        {
          "indexed": true,
          "name": "_newPausedState",
          "type": "bool"
        }
      ],
      "name": "LogPausedSet",
      "type": "event"
    },
    {
      "anonymous": false,
      "inputs": [
        {
          "indexed": true,
          "name": "previousOwner",
          "type": "address"
        },
        {
          "indexed": true,
          "name": "newOwner",
          "type": "address"
        }
      ],
      "name": "LogOwnerSet",
      "type": "event"
    },
    {
      "constant": false,
      "inputs": [
        {
          "name": "_entryBooth",
          "type": "address"
        },
        {
          "name": "_exitSecretHashed",
          "type": "bytes32"
        }
      ],
      "name": "enterRoad",
      "outputs": [
        {
          "name": "success",
          "type": "bool"
        }
      ],
      "payable": true,
      "stateMutability": "payable",
      "type": "function"
    },
    {
      "constant": true,
      "inputs": [
        {
          "name": "_exitSecretHashed",
          "type": "bytes32"
        }
      ],
      "name": "getVehicleEntry",
      "outputs": [
        {
          "name": "vehicle",
          "type": "address"
        },
        {
          "name": "entryBooth",
          "type": "address"
        },
        {
          "name": "depositedWeis",
          "type": "uint256"
        }
      ],
      "payable": false,
      "stateMutability": "view",
      "type": "function"
    },
    {
      "constant": false,
      "inputs": [
        {
          "name": "_exitSecretClear",
          "type": "bytes32"
        }
      ],
      "name": "reportExitRoad",
      "outputs": [
        {
          "name": "status",
          "type": "uint256"
        }
      ],
      "payable": false,
      "stateMutability": "nonpayable",
      "type": "function"
    },
    {
      "constant": true,
      "inputs": [
        {
          "name": "entryBooth",
          "type": "address"
        },
        {
          "name": "exitBooth",
          "type": "address"
        }
      ],
      "name": "getPendingPaymentCount",
      "outputs": [
        {
          "name": "count",
          "type": "uint256"
        }
      ],
      "payable": false,
      "stateMutability": "view",
      "type": "function"
    },
    {
      "constant": false,
      "inputs": [
        {
          "name": "_entryBooth",
          "type": "address"
        },
        {
          "name": "_exitBooth",
          "type": "address"
        },
        {
          "name": "_count",
          "type": "uint256"
        }
      ],
      "name": "clearSomePendingPayments",
      "outputs": [
        {
          "name": "success",
          "type": "bool"
        }
      ],
      "payable": false,
      "stateMutability": "nonpayable",
      "type": "function"
    },
    {
      "constant": false,
      "inputs": [
        {
          "name": "_entryBooth",
          "type": "address"
        },
        {
          "name": "_exitBooth",
          "type": "address"
        },
        {
          "name": "_priceWeis",
          "type": "uint256"
        }
      ],
      "name": "setRoutePrice",
      "outputs": [
        {
          "name": "success",
          "type": "bool"
        }
      ],
      "payable": false,
      "stateMutability": "nonpayable",
      "type": "function"
    },
    {
      "constant": true,
      "inputs": [],
      "name": "getCollectedFeesAmount",
      "outputs": [
        {
          "name": "amount",
          "type": "uint256"
        }
      ],
      "payable": false,
      "stateMutability": "view",
      "type": "function"
    },
    {
      "constant": false,
      "inputs": [],
      "name": "withdrawCollectedFees",
      "outputs": [
        {
          "name": "success",
          "type": "bool"
        }
      ],
      "payable": false,
      "stateMutability": "nonpayable",
      "type": "function"
    },
    {
      "constant": true,
      "inputs": [
        {
          "name": "_secret",
          "type": "bytes32"
        }
      ],
      "name": "hashSecret",
      "outputs": [
        {
          "name": "_hash",
          "type": "bytes32"
        }
      ],
      "payable": false,
      "stateMutability": "view",
      "type": "function"
    }
  ],
  "bytecode": "0x608060405234801561001057600080fd5b5060405160608062003e52833981018060405281019080805190602001909291908051906020019092919080519060200190929190505050808284336000806101000a81548173ffffffffffffffffffffffffffffffffffffffff021916908373ffffffffffffffffffffffffffffffffffffffff16021790555080600060146101000a81548160ff0219169083151502179055505060008111151561011e576040517f08c379a00000000000000000000000000000000000000000000000000000000081526004018080602001828103825260208152602001807f54686520696e697469616c206465706f7369742063616e6e6f7420626520302e81525060200191505060405180910390fd5b806001819055505060008173ffffffffffffffffffffffffffffffffffffffff16141515156101b5576040517f08c379a00000000000000000000000000000000000000000000000000000000081526004018080602001828103825260188152602001807f4e657720616464726573732063616e6e6f7420626520302e000000000000000081525060200191505060405180910390fd5b80600560006101000a81548173ffffffffffffffffffffffffffffffffffffffff021916908373ffffffffffffffffffffffffffffffffffffffff1602179055505082600060146101000a81548160ff0219169083151502179055508160018190555080600560006101000a81548173ffffffffffffffffffffffffffffffffffffffff021916908373ffffffffffffffffffffffffffffffffffffffff160217905550505050613be6806200026c6000396000f300608060405260043610610133576000357c0100000000000000000000000000000000000000000000000000000000900463ffffffff1680630bbbcbb2146101a157806313af4035146101fc57806316c38b3c14610257578063226dfb421461029e5780632c333eab14610323578063333271d01461037e57806339a87486146103cd57806350295c671461041257806350bb553a14610489578063552c1e55146104e45780637527b1ca14610531578063893d20e8146105dc578063954d4add1461063357806399763af61461068f578063adf8252d146106ba578063b187bd26146106fb578063c399ec881461072a578063cb3c4cbc14610755578063cde0a4f8146107cc578063dd47050f14610827578063e23d7c5b14610856578063f5bade66146108db578063f7e317f414610920575b6040517f08c379a00000000000000000000000000000000000000000000000000000000081526004018080602001828103825260208152602001807f526576657274696e6720616c6c206f6e636f6d696e672066756e6374696f6e7381525060200191505060405180910390fd5b3480156101ad57600080fd5b506101e2600480360381019080803573ffffffffffffffffffffffffffffffffffffffff169060200190929190505050610977565b604051808215151515815260200191505060405180910390f35b34801561020857600080fd5b5061023d600480360381019080803573ffffffffffffffffffffffffffffffffffffffff169060200190929190505050610bb8565b604051808215151515815260200191505060405180910390f35b34801561026357600080fd5b50610284600480360381019080803515159060200190929190505050610ec1565b604051808215151515815260200191505060405180910390f35b3480156102aa57600080fd5b50610309600480360381019080803573ffffffffffffffffffffffffffffffffffffffff169060200190929190803573ffffffffffffffffffffffffffffffffffffffff169060200190929190803590602001909291905050506110c7565b604051808215151515815260200191505060405180910390f35b34801561032f57600080fd5b50610364600480360381019080803573ffffffffffffffffffffffffffffffffffffffff1690602001909291905050506114be565b604051808215151515815260200191505060405180910390f35b34801561038a57600080fd5b506103b36004803603810190808035906020019092919080359060200190929190505050611797565b604051808215151515815260200191505060405180910390f35b3480156103d957600080fd5b506103fc6004803603810190808035600019169060200190929190505050611a1d565b6040518082815260200191505060405180910390f35b34801561041e57600080fd5b50610473600480360381019080803573ffffffffffffffffffffffffffffffffffffffff169060200190929190803573ffffffffffffffffffffffffffffffffffffffff169060200190929190505050612284565b6040518082815260200191505060405180910390f35b34801561049557600080fd5b506104ca600480360381019080803573ffffffffffffffffffffffffffffffffffffffff1690602001909291905050506123a9565b604051808215151515815260200191505060405180910390f35b3480156104f057600080fd5b5061051360048036038101908080356000191690602001909291905050506123ff565b60405180826000191660001916815260200191505060405180910390f35b34801561053d57600080fd5b506105606004803603810190808035600019169060200190929190505050612492565b604051808473ffffffffffffffffffffffffffffffffffffffff1673ffffffffffffffffffffffffffffffffffffffff1681526020018373ffffffffffffffffffffffffffffffffffffffff1673ffffffffffffffffffffffffffffffffffffffff168152602001828152602001935050505060405180910390f35b3480156105e857600080fd5b506105f1612512565b604051808273ffffffffffffffffffffffffffffffffffffffff1673ffffffffffffffffffffffffffffffffffffffff16815260200191505060405180910390f35b610675600480360381019080803573ffffffffffffffffffffffffffffffffffffffff169060200190929190803560001916906020019092919050505061253b565b604051808215151515815260200191505060405180910390f35b34801561069b57600080fd5b506106a4612ab0565b6040518082815260200191505060405180910390f35b3480156106c657600080fd5b506106e560048036038101908080359060200190929190505050612aba565b6040518082815260200191505060405180910390f35b34801561070757600080fd5b50610710612ad7565b604051808215151515815260200191505060405180910390f35b34801561073657600080fd5b5061073f612aed565b6040518082815260200191505060405180910390f35b34801561076157600080fd5b506107b6600480360381019080803573ffffffffffffffffffffffffffffffffffffffff169060200190929190803573ffffffffffffffffffffffffffffffffffffffff169060200190929190505050612af7565b6040518082815260200191505060405180910390f35b3480156107d857600080fd5b5061080d600480360381019080803573ffffffffffffffffffffffffffffffffffffffff169060200190929190505050612c1f565b604051808215151515815260200191505060405180910390f35b34801561083357600080fd5b5061083c612f4b565b604051808215151515815260200191505060405180910390f35b34801561086257600080fd5b506108c1600480360381019080803573ffffffffffffffffffffffffffffffffffffffff169060200190929190803573ffffffffffffffffffffffffffffffffffffffff1690602001909291908035906020019092919050505061303a565b604051808215151515815260200191505060405180910390f35b3480156108e757600080fd5b506109066004803603810190808035906020019092919050505061327c565b604051808215151515815260200191505060405180910390f35b34801561092c57600080fd5b50610935613504565b604051808273ffffffffffffffffffffffffffffffffffffffff1673ffffffffffffffffffffffffffffffffffffffff16815260200191505060405180910390f35b60008060009054906101000a900473ffffffffffffffffffffffffffffffffffffffff1673ffffffffffffffffffffffffffffffffffffffff163373ffffffffffffffffffffffffffffffffffffffff16141515610a63576040517f08c379a00000000000000000000000000000000000000000000000000000000081526004018080602001828103825260228152602001807f4f6e6c79206f776e65722063616e20706572666f726d2074686973206163746981526020017f6f6e00000000000000000000000000000000000000000000000000000000000081525060400191505060405180910390fd5b610a6c826123a9565b1515610b06576040517f08c379a00000000000000000000000000000000000000000000000000000000081526004018080602001828103825260218152602001807f476976656e2061646472657373206973206e6f74206120746f6c6c20626f6f7481526020017f680000000000000000000000000000000000000000000000000000000000000081525060400191505060405180910390fd5b600260008373ffffffffffffffffffffffffffffffffffffffff1673ffffffffffffffffffffffffffffffffffffffff16815260200190815260200160002060006101000a81549060ff02191690558173ffffffffffffffffffffffffffffffffffffffff163373ffffffffffffffffffffffffffffffffffffffff167f5b34220b1e6888774f5c1badf295633d5d8d4ae02d5e3019e422b3debfe8967860405160405180910390a360019050919050565b60008060009054906101000a900473ffffffffffffffffffffffffffffffffffffffff1673ffffffffffffffffffffffffffffffffffffffff163373ffffffffffffffffffffffffffffffffffffffff16141515610ca4576040517f08c379a00000000000000000000000000000000000000000000000000000000081526004018080602001828103825260228152602001807f4f6e6c79206f776e65722063616e20706572666f726d2074686973206163746981526020017f6f6e00000000000000000000000000000000000000000000000000000000000081525060400191505060405180910390fd5b60008273ffffffffffffffffffffffffffffffffffffffff1614151515610d33576040517f08c379a000000000000000000000000000000000000000000000000000000000815260040180806020018281038252601d8152602001807f4e6577206f776e65722063616e6e6f742062652030206164647265737300000081525060200191505060405180910390fd5b3373ffffffffffffffffffffffffffffffffffffffff168273ffffffffffffffffffffffffffffffffffffffff1614151515610dfd576040517f08c379a00000000000000000000000000000000000000000000000000000000081526004018080602001828103825260278152602001807f4e6577206f776e6572206d75737420626520646966666572656e74207468616e81526020017f2073656e6465720000000000000000000000000000000000000000000000000081525060400191505060405180910390fd5b816000806101000a81548173ffffffffffffffffffffffffffffffffffffffff021916908373ffffffffffffffffffffffffffffffffffffffff1602179055506000809054906101000a900473ffffffffffffffffffffffffffffffffffffffff1673ffffffffffffffffffffffffffffffffffffffff163373ffffffffffffffffffffffffffffffffffffffff167fa1d2149652d81eb35c360c115fc7ac594124cb1ea8a5a33e9a7f5768c62869fb60405160405180910390a360019050919050565b60008060009054906101000a900473ffffffffffffffffffffffffffffffffffffffff1673ffffffffffffffffffffffffffffffffffffffff163373ffffffffffffffffffffffffffffffffffffffff16141515610fad576040517f08c379a00000000000000000000000000000000000000000000000000000000081526004018080602001828103825260228152602001807f4f6e6c79206f776e65722063616e20706572666f726d2074686973206163746981526020017f6f6e00000000000000000000000000000000000000000000000000000000000081525060400191505060405180910390fd5b600060149054906101000a900460ff1615158215151415151561105e576040517f08c379a000000000000000000000000000000000000000000000000000000000815260040180806020018281038252602d8152602001807f4e6577207374617465206d75737420626520646966666572656e74207468616e81526020017f2063757272656e74206f6e652e0000000000000000000000000000000000000081525060400191505060405180910390fd5b81600060146101000a81548160ff0219169083151502179055508115153373ffffffffffffffffffffffffffffffffffffffff167fae0f86d9801b0bd39a2ce25d9fd1f202f2fd22e80150be4a99adb0275a635d6c60405160405180910390a360019050919050565b60008060008060008060008060008060149054906101000a900460ff16151515611159576040517f08c379a00000000000000000000000000000000000000000000000000000000081526004018080602001828103825260138152602001807f4d757374206e6f74206265207061757365642e0000000000000000000000000081525060200191505060405180910390fd5b60008a1115156111d1576040517f08c379a000000000000000000000000000000000000000000000000000000000815260040180806020018281038252601c8152602001807f436f756e74206d75737420626520626967676572207468616e2030210000000081525060200191505060405180910390fd5b8b8b604051602001808373ffffffffffffffffffffffffffffffffffffffff1673ffffffffffffffffffffffffffffffffffffffff166c010000000000000000000000000281526014018273ffffffffffffffffffffffffffffffffffffffff1673ffffffffffffffffffffffffffffffffffffffff166c01000000000000000000000000028152601401925050506040516020818303038152906040526040518082805190602001908083835b6020831015156112a4578051825260208201915060208101905060208303925061127f565b6001836020036101000a0380198251168184511680821785525050505050509050019150506040518091039020975060046000896000191660001916815260200190815260200160002054965060008711156114ab576007600089600019166000191681526020019081526020016000209550898660000154101515156113b9576040517f08c379a000000000000000000000000000000000000000000000000000000000815260040180806020018281038252602f8152602001807f50656e64696e67207061796d656e74206d75737420626520626967676572207481526020017f68616e20676976656e20636f756e74000000000000000000000000000000000081525060400191505060405180910390fd5b600094505b898510156114aa57856001015493508560020160008581526020019081526020016000205492506113ef838861352e565b809250819350505060006001028660020160008681526020019081526020016000208160001916905550856000016000815480929190600190039190505550856001016000815480929190600101919050555082600019168b73ffffffffffffffffffffffffffffffffffffffff167fcc28c1c2c2269c01d739ef1a54d12784fe3052b2f228668ba5f4bc862ebe51bc8385604051808381526020018281526020019250505060405180910390a384806001019550506113be565b5b6001985050505050505050509392505050565b60008060009054906101000a900473ffffffffffffffffffffffffffffffffffffffff1673ffffffffffffffffffffffffffffffffffffffff163373ffffffffffffffffffffffffffffffffffffffff161415156115aa576040517f08c379a00000000000000000000000000000000000000000000000000000000081526004018080602001828103825260228152602001807f4f6e6c79206f776e65722063616e20706572666f726d2074686973206163746981526020017f6f6e00000000000000000000000000000000000000000000000000000000000081525060400191505060405180910390fd5b60008273ffffffffffffffffffffffffffffffffffffffff1611151561165e576040517f08c379a00000000000000000000000000000000000000000000000000000000081526004018080602001828103825260228152602001807f4e657720746f6c6c20626f6f746820616464726573732063616e6e6f7420626581526020017f203000000000000000000000000000000000000000000000000000000000000081525060400191505060405180910390fd5b611667826123a9565b1515156116dc576040517f08c379a00000000000000000000000000000000000000000000000000000000081526004018080602001828103825260208152602001807f4164647265737320697320616c7265616479206120746f6c6c20626f6f74682e81525060200191505060405180910390fd5b6001600260008473ffffffffffffffffffffffffffffffffffffffff1673ffffffffffffffffffffffffffffffffffffffff16815260200190815260200160002060006101000a81548160ff0219169083151502179055508173ffffffffffffffffffffffffffffffffffffffff163373ffffffffffffffffffffffffffffffffffffffff167fe8f587f6ae5ef5f7560b94b9369dd242c9de0588c328add1a785044abf837c6d60405160405180910390a360019050919050565b60008060009054906101000a900473ffffffffffffffffffffffffffffffffffffffff1673ffffffffffffffffffffffffffffffffffffffff163373ffffffffffffffffffffffffffffffffffffffff16141515611883576040517f08c379a00000000000000000000000000000000000000000000000000000000081526004018080602001828103825260228152602001807f4f6e6c79206f776e65722063616e20706572666f726d2074686973206163746981526020017f6f6e00000000000000000000000000000000000000000000000000000000000081525060400191505060405180910390fd5b6000831115156118fb576040517f08c379a00000000000000000000000000000000000000000000000000000000081526004018080602001828103825260188152602001807f56656869636c6520747970652063616e6e6f742062652030000000000000000081525060200191505060405180910390fd5b816003600085815260200190815260200160002054141515156119ac576040517f08c379a00000000000000000000000000000000000000000000000000000000081526004018080602001828103825260328152602001807f4e6577206d756c7469706c696572206d75737420626520646966666572656e7481526020017f207468616e2063757272656e74206f6e652e000000000000000000000000000081525060400191505060405180910390fd5b816003600085815260200190815260200160002081905550823373ffffffffffffffffffffffffffffffffffffffff167f5e168e70d5925560e1407b68dc2495afbc25b36217cc6e4167b2cf3f28a46ef1846040518082815260200191505060405180910390a36001905092915050565b600080600080600080600080600060149054906101000a900460ff16151515611aae576040517f08c379a00000000000000000000000000000000000000000000000000000000081526004018080602001828103825260138152602001807f4d757374206e6f74206265207061757365642e0000000000000000000000000081525060200191505060405180910390fd5b611ab7336123a9565b1515611b2b576040517f08c379a000000000000000000000000000000000000000000000000000000000815260040180806020018281038252601b8152602001807f53656e6465722068617320746f20626520746f6c6c20626f6f7468000000000081525060200191505060405180910390fd5b611b34896123ff565b9650600060066000896000191660001916815260200190815260200160002060000160009054906101000a900473ffffffffffffffffffffffffffffffffffffffff1673ffffffffffffffffffffffffffffffffffffffff1614158015611bba575060006006600089600019166000191681526020019081526020016000206003015414155b1515611c2e576040517f08c379a00000000000000000000000000000000000000000000000000000000081526004018080602001828103825260198152602001807f56656869636c6520747970652063616e6e6f7420626520302e0000000000000081525060200191505060405180910390fd5b60066000886000191660001916815260200190815260200160002095506000611c55613504565b73ffffffffffffffffffffffffffffffffffffffff1663028e77688860000160009054906101000a900473ffffffffffffffffffffffffffffffffffffffff166040518263ffffffff167c0100000000000000000000000000000000000000000000000000000000028152600401808273ffffffffffffffffffffffffffffffffffffffff1673ffffffffffffffffffffffffffffffffffffffff168152602001915050602060405180830381600087803b158015611d1357600080fd5b505af1158015611d27573d6000803e3d6000fd5b505050506040513d6020811015611d3d57600080fd5b8101908080519060200190929190505050111515611dc3576040517f08c379a00000000000000000000000000000000000000000000000000000000081526004018080602001828103825260198152602001807f56656869636c6520747970652063616e6e6f7420626520302e0000000000000081525060200191505060405180910390fd5b3373ffffffffffffffffffffffffffffffffffffffff168660020160009054906101000a900473ffffffffffffffffffffffffffffffffffffffff1673ffffffffffffffffffffffffffffffffffffffff1614151515611eb1576040517f08c379a000000000000000000000000000000000000000000000000000000000815260040180806020018281038252602a8152602001807f456e74727920626f6f74682063616e6e6f7420626520612073656e646572206f81526020017f6620636f6e74726163740000000000000000000000000000000000000000000081525060400191505060405180910390fd5b600460008760020160009054906101000a900473ffffffffffffffffffffffffffffffffffffffff1633604051602001808373ffffffffffffffffffffffffffffffffffffffff1673ffffffffffffffffffffffffffffffffffffffff166c010000000000000000000000000281526014018273ffffffffffffffffffffffffffffffffffffffff1673ffffffffffffffffffffffffffffffffffffffff166c01000000000000000000000000028152601401925050506040516020818303038152906040526040518082805190602001908083835b602083101515611fac5780518252602082019150602081019050602083039250611f87565b6001836020036101000a038019825116818451168082178552505050505050905001915050604051809103902060001916600019168152602001908152602001600020549450600085111561207157612005878661352e565b809450819550505086600019163373ffffffffffffffffffffffffffffffffffffffff167fcc28c1c2c2269c01d739ef1a54d12784fe3052b2f228668ba5f4bc862ebe51bc8587604051808381526020018281526020019250505060405180910390a360019750612278565b600760008760020160009054906101000a900473ffffffffffffffffffffffffffffffffffffffff1633604051602001808373ffffffffffffffffffffffffffffffffffffffff1673ffffffffffffffffffffffffffffffffffffffff166c010000000000000000000000000281526014018273ffffffffffffffffffffffffffffffffffffffff1673ffffffffffffffffffffffffffffffffffffffff166c01000000000000000000000000028152601401925050506040516020818303038152906040526040518082805190602001908083835b60208310151561216c5780518252602082019150602081019050602083039250612147565b6001836020036101000a03801982511681845116808217855250505050505090500191505060405180910390206000191660001916815260200190815260200160002091508160010154826000015401905086826002016000838152602001908152602001600020816000191690555081600001600081548092919060010191905055503373ffffffffffffffffffffffffffffffffffffffff168660020160009054906101000a900473ffffffffffffffffffffffffffffffffffffffff1673ffffffffffffffffffffffffffffffffffffffff1688600019167f739c4108960ded7f9e5e6790da2d3baebfb37959560441b5787b8c70676d873c60405160405180910390a4600297505b50505050505050919050565b6000600460008484604051602001808373ffffffffffffffffffffffffffffffffffffffff1673ffffffffffffffffffffffffffffffffffffffff166c010000000000000000000000000281526014018273ffffffffffffffffffffffffffffffffffffffff1673ffffffffffffffffffffffffffffffffffffffff166c01000000000000000000000000028152601401925050506040516020818303038152906040526040518082805190602001908083835b60208310151561235d5780518252602082019150602081019050602083039250612338565b6001836020036101000a03801982511681845116808217855250505050505090500191505060405180910390206000191660001916815260200190815260200160002054905092915050565b6000600260008373ffffffffffffffffffffffffffffffffffffffff1673ffffffffffffffffffffffffffffffffffffffff16815260200190815260200160002060009054906101000a900460ff169050919050565b6000816040516020018082600019166000191681526020019150506040516020818303038152906040526040518082805190602001908083835b60208310151561245e5780518252602082019150602081019050602083039250612439565b6001836020036101000a03801982511681845116808217855250505050505090500191505060405180910390209050919050565b60008060008060066000866000191660001916815260200190815260200160002090508060000160009054906101000a900473ffffffffffffffffffffffffffffffffffffffff168160020160009054906101000a900473ffffffffffffffffffffffffffffffffffffffff168260030154935093509350509193909250565b60008060009054906101000a900473ffffffffffffffffffffffffffffffffffffffff16905090565b60008060008060149054906101000a900460ff161515156125c4576040517f08c379a00000000000000000000000000000000000000000000000000000000081526004018080602001828103825260138152602001807f4d757374206e6f74206265207061757365642e0000000000000000000000000081525060200191505060405180910390fd5b6125cd856123a9565b1515612641576040517f08c379a000000000000000000000000000000000000000000000000000000000815260040180806020018281038252601e8152602001807f456e74727920626f6f7468206d75737420626520746f6c6c20626f6f7468000081525060200191505060405180910390fd5b600060066000866000191660001916815260200190815260200160002060000160009054906101000a900473ffffffffffffffffffffffffffffffffffffffff1673ffffffffffffffffffffffffffffffffffffffff1614151561270d576040517f08c379a00000000000000000000000000000000000000000000000000000000081526004018080602001828103825260148152602001807f56656869636c652063616e6e6f7420626520302e00000000000000000000000081525060200191505060405180910390fd5b612715613504565b9150600360008373ffffffffffffffffffffffffffffffffffffffff1663028e7768336040518263ffffffff167c0100000000000000000000000000000000000000000000000000000000028152600401808273ffffffffffffffffffffffffffffffffffffffff1673ffffffffffffffffffffffffffffffffffffffff168152602001915050602060405180830381600087803b1580156127b657600080fd5b505af11580156127ca573d6000803e3d6000fd5b505050506040513d60208110156127e057600080fd5b810190808051906020019092919050505081526020019081526020016000205490506000811115156128a0576040517f08c379a00000000000000000000000000000000000000000000000000000000081526004018080602001828103825260288152602001807f56656869636c65206d756c7469706c696572206d75737420626520626967676581526020017f72207468616e203000000000000000000000000000000000000000000000000081525060400191505060405180910390fd5b6128b58160015461362490919063ffffffff16565b341015151561292c576040517f08c379a00000000000000000000000000000000000000000000000000000000081526004018080602001828103825260208152602001807f4465706f736974206d75737420626520626967676572206f7220657175616c2181525060200191505060405180910390fd5b6080604051908101604052803373ffffffffffffffffffffffffffffffffffffffff1681526020018281526020018673ffffffffffffffffffffffffffffffffffffffff1681526020013481525060066000866000191660001916815260200190815260200160002060008201518160000160006101000a81548173ffffffffffffffffffffffffffffffffffffffff021916908373ffffffffffffffffffffffffffffffffffffffff1602179055506020820151816001015560408201518160020160006101000a81548173ffffffffffffffffffffffffffffffffffffffff021916908373ffffffffffffffffffffffffffffffffffffffff1602179055506060820151816003015590505083600019168573ffffffffffffffffffffffffffffffffffffffff163373ffffffffffffffffffffffffffffffffffffffff167f26213b556e4ae8dd63f1f81f4ea6181803d9a3efcad477cd84dcae45a264c30b346040518082815260200191505060405180910390a460019250505092915050565b6000600854905090565b600060036000838152602001908152602001600020549050919050565b60008060149054906101000a900460ff16905090565b6000600154905090565b6000600760008484604051602001808373ffffffffffffffffffffffffffffffffffffffff1673ffffffffffffffffffffffffffffffffffffffff166c010000000000000000000000000281526014018273ffffffffffffffffffffffffffffffffffffffff1673ffffffffffffffffffffffffffffffffffffffff166c01000000000000000000000000028152601401925050506040516020818303038152906040526040518082805190602001908083835b602083101515612bd05780518252602082019150602081019050602083039250612bab565b6001836020036101000a03801982511681845116808217855250505050505090500191505060405180910390206000191660001916815260200190815260200160002060000154905092915050565b6000808273ffffffffffffffffffffffffffffffffffffffff16111515612cae576040517f08c379a00000000000000000000000000000000000000000000000000000000081526004018080602001828103825260188152602001807f4e657720616464726573732063616e6e6f7420626520302e000000000000000081525060200191505060405180910390fd5b600560009054906101000a900473ffffffffffffffffffffffffffffffffffffffff1673ffffffffffffffffffffffffffffffffffffffff168273ffffffffffffffffffffffffffffffffffffffff1614151515612d9a576040517f08c379a000000000000000000000000000000000000000000000000000000000815260040180806020018281038252602b8152602001807f4e657720726567756c61746f722063616e6e6f74206265207468652073616d6581526020017f20726567756c61746f722e00000000000000000000000000000000000000000081525060400191505060405180910390fd5b600560009054906101000a900473ffffffffffffffffffffffffffffffffffffffff1673ffffffffffffffffffffffffffffffffffffffff163373ffffffffffffffffffffffffffffffffffffffff16141515612e85576040517f08c379a00000000000000000000000000000000000000000000000000000000081526004018080602001828103825260268152602001807f53656e646572206d757374206265206120726567756c61746f72206f6620636f81526020017f6e7472616374000000000000000000000000000000000000000000000000000081525060400191505060405180910390fd5b8173ffffffffffffffffffffffffffffffffffffffff16600560009054906101000a900473ffffffffffffffffffffffffffffffffffffffff1673ffffffffffffffffffffffffffffffffffffffff167fa32c4b1f26f0d877f643f7fb9db131f9cebf04d120fe5ada74c0bdfc808dab8360405160405180910390a381600560006101000a81548173ffffffffffffffffffffffffffffffffffffffff021916908373ffffffffffffffffffffffffffffffffffffffff16021790555060019050919050565b600080600854905060006008819055506000809054906101000a900473ffffffffffffffffffffffffffffffffffffffff1673ffffffffffffffffffffffffffffffffffffffff166108fc829081150290604051600060405180830381858888f19350505050158015612fc2573d6000803e3d6000fd5b506000809054906101000a900473ffffffffffffffffffffffffffffffffffffffff1673ffffffffffffffffffffffffffffffffffffffff167f851c9440e522074225f247c12030d8a38be67fbda82238aac95d4a4454647f9d826040518082815260200191505060405180910390a2600191505090565b60008060008060009054906101000a900473ffffffffffffffffffffffffffffffffffffffff1673ffffffffffffffffffffffffffffffffffffffff163373ffffffffffffffffffffffffffffffffffffffff16141515613129576040517f08c379a00000000000000000000000000000000000000000000000000000000081526004018080602001828103825260228152602001807f4f6e6c79206f776e65722063616e20706572666f726d2074686973206163746981526020017f6f6e00000000000000000000000000000000000000000000000000000000000081525060400191505060405180910390fd5b613134868686613662565b508585604051602001808373ffffffffffffffffffffffffffffffffffffffff1673ffffffffffffffffffffffffffffffffffffffff166c010000000000000000000000000281526014018273ffffffffffffffffffffffffffffffffffffffff1673ffffffffffffffffffffffffffffffffffffffff166c01000000000000000000000000028152601401925050506040516020818303038152906040526040518082805190602001908083835b60208310151561320857805182526020820191506020810190506020830392506131e3565b6001836020036101000a03801982511681845116808217855250505050505090500191505060405180910390209150600760008360001916600019168152602001908152602001600020600001549050600081111561326f5761326d868660016110c7565b505b6001925050509392505050565b60008060009054906101000a900473ffffffffffffffffffffffffffffffffffffffff1673ffffffffffffffffffffffffffffffffffffffff163373ffffffffffffffffffffffffffffffffffffffff16141515613368576040517f08c379a00000000000000000000000000000000000000000000000000000000081526004018080602001828103825260228152602001807f4f6e6c79206f776e65722063616e20706572666f726d2074686973206163746981526020017f6f6e00000000000000000000000000000000000000000000000000000000000081525060400191505060405180910390fd5b600082111515613406576040517f08c379a00000000000000000000000000000000000000000000000000000000081526004018080602001828103825260248152602001807f4465706f73697465642077656973206d7573742062652062696767657220746881526020017f616e20300000000000000000000000000000000000000000000000000000000081525060400191505060405180910390fd5b60015482141515156134a6576040517f08c379a000000000000000000000000000000000000000000000000000000000815260040180806020018281038252602d8152602001807f4e6577206465706f736974206973206e6f20646966666572656e74207468616e81526020017f2063757272656e74206f6e652e0000000000000000000000000000000000000081525060400191505060405180910390fd5b816001819055503373ffffffffffffffffffffffffffffffffffffffff167ffa53ebd539f52eb4ef352ffacb2f8f5f8080cd8bb7ebb2f1acab3e1ce4bd65cb836040518082815260200191505060405180910390a260019050919050565b6000600560009054906101000a900473ffffffffffffffffffffffffffffffffffffffff16905090565b6000806000806000600660008860001916600019168152602001908152602001600020925061356a83600101548761362490919063ffffffff16565b91508260030154905080821115613584576000945061358a565b81810394505b848103935083600860008282540192505081905550600083600301819055508260000160009054906101000a900473ffffffffffffffffffffffffffffffffffffffff1673ffffffffffffffffffffffffffffffffffffffff166108fc869081150290604051600060405180830381858888f19350505050158015613613573d6000803e3d6000fd5b508484945094505050509250929050565b6000806000841415613639576000915061365b565b828402905082848281151561364a57fe5b0414151561365757600080fd5b8091505b5092915050565b6000806000809054906101000a900473ffffffffffffffffffffffffffffffffffffffff1673ffffffffffffffffffffffffffffffffffffffff163373ffffffffffffffffffffffffffffffffffffffff1614151561374f576040517f08c379a00000000000000000000000000000000000000000000000000000000081526004018080602001828103825260228152602001807f4f6e6c79206f776e65722063616e20706572666f726d2074686973206163746981526020017f6f6e00000000000000000000000000000000000000000000000000000000000081525060400191505060405180910390fd5b8373ffffffffffffffffffffffffffffffffffffffff168573ffffffffffffffffffffffffffffffffffffffff1614151515613819576040517f08c379a00000000000000000000000000000000000000000000000000000000081526004018080602001828103825260318152602001807f416e20656e74727920626f6f746820616e64206578697420626f6f746820636181526020017f6e6e6f74206265207468652073616d652100000000000000000000000000000081525060400191505060405180910390fd5b60008573ffffffffffffffffffffffffffffffffffffffff16118015613855575060008473ffffffffffffffffffffffffffffffffffffffff16115b15156138c9576040517f08c379a000000000000000000000000000000000000000000000000000000000815260040180806020018281038252601e8152602001807f45697468657220626f6f746873206973206120307820616464726573732e000081525060200191505060405180910390fd5b6138d2856123a9565b80156138e357506138e2846123a9565b5b151561397d576040517f08c379a00000000000000000000000000000000000000000000000000000000081526004018080602001828103825260288152602001807f456e74727920626f6f746820616e64206578697420626f6f7468206d7573742081526020017f626520746f6c6c2100000000000000000000000000000000000000000000000081525060400191505060405180910390fd5b8484604051602001808373ffffffffffffffffffffffffffffffffffffffff1673ffffffffffffffffffffffffffffffffffffffff166c010000000000000000000000000281526014018273ffffffffffffffffffffffffffffffffffffffff1673ffffffffffffffffffffffffffffffffffffffff166c01000000000000000000000000028152601401925050506040516020818303038152906040526040518082805190602001908083835b602083101515613a505780518252602082019150602081019050602083039250613a2b565b6001836020036101000a03801982511681845116808217855250505050505090500191505060405180910390209050826004600083600019166000191681526020019081526020016000205414151515613b12576040517f08c379a000000000000000000000000000000000000000000000000000000000815260040180806020018281038252601c8152602001807f5468657265206d7573742061206368616e676520696e2070726963650000000081525060200191505060405180910390fd5b82600460008360001916600019168152602001908152602001600020819055508373ffffffffffffffffffffffffffffffffffffffff168573ffffffffffffffffffffffffffffffffffffffff163373ffffffffffffffffffffffffffffffffffffffff167f5b631b37e5dfb698eace7497bcae58e93fac69e007127739fc79109d99c58332866040518082815260200191505060405180910390a4600191505093925050505600a165627a7a7230582020b2ba61dfc0e1503eb6cd54f31ec4b1076d5487365a1dfdfe792d0dcd3752880029",
  "source": "pragma solidity ^0.4.24;\n\nimport \"./Owned.sol\";\nimport \"./Pausable.sol\";\nimport \"./Regulated.sol\";\nimport \"./MultiplierHolder.sol\";\nimport \"./DepositHolder.sol\";\nimport \"./RoutePriceHolder.sol\";\nimport \"./interfaces/TollBoothOperatorI.sol\";\nimport \"./Regulator.sol\";\nimport \"./TollBoothHolder.sol\";\n\nimport \"../node_modules/openzeppelin-solidity/contracts/math/SafeMath.sol\";\n\ncontract TollBoothOperator is Owned, Pausable, DepositHolder, TollBoothHolder, \nMultiplierHolder, RoutePriceHolder, Regulated, TollBoothOperatorI {\n\n    using SafeMath for uint;\n\n    struct Entry {\n        address vehicle;\n        uint multiplier;\n        address entryBooth;\n        uint depositedWeis;\n    }\n\n    struct RouteMetadata {\n        uint pendingPaymentCount;\n        uint clearedPaymentCount;\n        mapping(uint => bytes32) pendingPayments;\n    }\n\n    mapping(bytes32 => Entry) internal entries;\n\n    mapping(bytes32 => RouteMetadata) internal routesMetadata;\n\n    uint internal collectedFees;\n\n    event LogRoadEntered(address indexed vehicle, address indexed entryBooth, bytes32 indexed exitSecretHashed, uint depositedWeis);\n    event LogRoadExited(address indexed exitBooth, bytes32 indexed exitSecretHashed, uint finalFee, uint refundWeis);\n    event LogPendingPayment(bytes32 indexed exitSecretHashed, address indexed entryBooth, address indexed exitBooth);\n    event LogFeesCollected(address indexed owner, uint amount);\n    \n    constructor(bool _state, uint _deposit, address _regulator)\n    public \n    Pausable(_state) \n    DepositHolder(_deposit)\n    Regulated(_regulator) { \n        paused = _state;\n        deposit = _deposit;\n        regulator = _regulator;\n    }\n\n    function () public payable {\n        revert(\"Reverting all oncoming functions\");\n    }\n\n    function enterRoad(address _entryBooth, bytes32 _exitSecretHashed) public payable whenNotPaused returns (bool success) {\n        require(isTollBooth(_entryBooth), \"Entry booth must be toll booth\");\n        require(entries[_exitSecretHashed].vehicle == 0x0, \"Vehicle cannot be 0.\");\n        Regulator roadRegulator = Regulator(getRegulator());\n        uint vehicleMultiplier = multipliers[roadRegulator.vehicles(msg.sender)];\n        require(vehicleMultiplier > 0, \"Vehicle multiplier must be bigger than 0\");\n        require(msg.value >= deposit.mul(vehicleMultiplier), \"Deposit must be bigger or equal!\");\n        entries[_exitSecretHashed] = Entry(msg.sender, vehicleMultiplier, _entryBooth, msg.value);\n        emit LogRoadEntered(msg.sender, _entryBooth, _exitSecretHashed, msg.value);\n        return true;\n    }\n\n    function getVehicleEntry(bytes32 _exitSecretHashed) public view returns(address vehicle, address entryBooth, uint depositedWeis) {\n        Entry storage entry = entries[_exitSecretHashed];\n        return (entry.vehicle, entry.entryBooth, entry.depositedWeis);\n    }\n\n    function reportExitRoad(bytes32 _exitSecretClear) public whenNotPaused returns(uint status) {\n        require(isTollBooth(msg.sender), \"Sender has to be toll booth\");\n        bytes32 exitSecretHashed = hashSecret(_exitSecretClear);\n        require(entries[exitSecretHashed].vehicle != 0x0 && entries[exitSecretHashed].depositedWeis != 0x0, \"Vehicle type cannot be 0.\");\n        Entry storage entry = entries[exitSecretHashed];\n        require(Regulator(getRegulator()).vehicles(entry.vehicle) > 0, \"Vehicle type cannot be 0.\");\n        require(entry.entryBooth != msg.sender, \"Entry booth cannot be a sender of contract\");\n        uint price = priceHolders[keccak256(abi.encodePacked(entry.entryBooth, msg.sender))];\n        if (price > 0) {\n            uint refund;\n            uint finalFee;\n            (refund, finalFee) = executePayment(exitSecretHashed, price);\n            emit LogRoadExited(msg.sender, exitSecretHashed, finalFee, refund);\n            return 1;\n        } else {\n            RouteMetadata storage metadata = routesMetadata[keccak256(abi.encodePacked(entry.entryBooth, msg.sender))];\n            uint index = metadata.pendingPaymentCount + metadata.clearedPaymentCount;\n            metadata.pendingPayments[index] = exitSecretHashed;\n            metadata.pendingPaymentCount++;\n            emit LogPendingPayment(exitSecretHashed, entry.entryBooth, msg.sender);\n            return 2;\n        }\n    }\n    \n    function getPendingPaymentCount(address entryBooth, address exitBooth) public view returns (uint count) {\n        return routesMetadata[keccak256(abi.encodePacked(entryBooth, exitBooth))].pendingPaymentCount;\n    }\n\n    function clearSomePendingPayments(address _entryBooth, address _exitBooth, uint _count) public whenNotPaused returns (bool success) {\n        require(_count > 0, \"Count must be bigger than 0!\");\n        bytes32 _hash = keccak256(abi.encodePacked(_entryBooth, _exitBooth));\n        uint routePrice = priceHolders[_hash];\n        if (routePrice > 0) {\n            RouteMetadata storage routeMetadata = routesMetadata[_hash];\n            require(routeMetadata.pendingPaymentCount >= _count, \"Pending payment must be bigger than given count\");\n            for (uint i = 0; i < _count; i++) {\n                uint paymentIndex = routeMetadata.clearedPaymentCount;\n                bytes32 exitSecretHashed = routeMetadata.pendingPayments[paymentIndex];\n                uint refund;\n                uint finalFee;\n                (refund, finalFee) = executePayment(exitSecretHashed, routePrice);\n                routeMetadata.pendingPayments[paymentIndex] = bytes32(0);\n                routeMetadata.pendingPaymentCount--;\n                routeMetadata.clearedPaymentCount++;\n                emit LogRoadExited(_exitBooth, exitSecretHashed, finalFee, refund);\n            }\n        }\n        return true;\n    }\n\n    function setRoutePrice(address _entryBooth, address _exitBooth, uint _priceWeis) public fromOwner returns(bool success) {\n        super.setRoutePrice(_entryBooth, _exitBooth, _priceWeis);\n        bytes32 bootsHashed = keccak256(abi.encodePacked(_entryBooth, _exitBooth));\n        uint pendingPaymentCount = routesMetadata[bootsHashed].pendingPaymentCount;\n        if (pendingPaymentCount > 0) {\n            clearSomePendingPayments(_entryBooth, _exitBooth, 1);\n        }\n        return true;\n    }\n\n    function getCollectedFeesAmount() public view returns(uint amount) {\n        return collectedFees;\n    }\n\n    function withdrawCollectedFees() public returns(bool success) {\n        uint collected = collectedFees;\n        collectedFees = 0;\n        owner.transfer(collected);\n        emit LogFeesCollected(owner, collected);\n        return true;\n    }\n\n    function hashSecret(bytes32 _secret) public view returns(bytes32 _hash) {\n        return keccak256(abi.encodePacked(_secret));\n    }\n\n    function executePayment(bytes32 _exitSecretHashed, uint _routePrice) private returns(uint refund, uint finalFee) {\n        Entry storage entry = entries[_exitSecretHashed];\n        uint vehiclePrice = _routePrice.mul(entry.multiplier);\n        uint depositedWeis = entry.depositedWeis;\n        if (vehiclePrice > depositedWeis) {\n            refund = 0;\n        } else {\n            refund = depositedWeis - vehiclePrice;\n        }\n        finalFee = depositedWeis - refund;\n        collectedFees += finalFee;\n        entry.depositedWeis = 0;\n        entry.vehicle.transfer(refund);\n        return(refund, finalFee);\n    }\n}",
  "sourcePath": "/Users/wojciechkalinski/workspace-oracle-exam2/exam-step-2/contracts/TollBoothOperator.sol",
  "compiler": {
    "name": "solc",
    "version": "0.4.24+commit.e67f0147.Emscripten.clang"
  },
  "schemaVersion": "2.0.1",
  "updatedAt": "2018-12-18T09:47:36.498Z"
}